:100000000C9462000C948A000C948A000C948A0070
:100010000C948A000C948A000C948A000C948A0038
:100020000C948A000C948A000C948A000C948A0028
:100030000C948A000C948A000C948A000C948A0018
:100040000C9488040C948A000C9456040C9430048C
:100050000C948A000C948A000C948A000C948A00F8
:100060000C948A000C948A000000000024002700F1
:100070002A0000000000250028002B0000000000DE
:1000800023002600290004040404040404040202DA
:100090000202020203030303030301020408102007
:1000A0004080010204081020010204081020000012
:1000B0000008000201000003040700000000000027
:1000C0000000D20411241FBECFEFD8E0DEBFCDBFA9
:1000D00011E0A0E0B1E0EEE2FFE002C005900D9279
:1000E000AC33B107D9F722E0ACE3B1E001C01D9217
:1000F000AB36B207E1F710E0C2E6D0E004C02197CA
:10010000FE010E948A07C136D107C9F70E949005F7
:100110000C9495070C94000096E0899FD00111245F
:10012000AC51BE4F90967C936E935F9791E0919601
:100130009C93919790915002E0915102F09152025C
:10014000992339F0309751F0811108C08091000255
:1001500004C0309719F05C968C9109940895CF9261
:10016000DF92EF92FF920F931F93CF93DF936C0177
:100170007A018B01C0E0D0E0CE15DF0589F0D8010F
:100180006D918D01D601ED91FC910190F081E02DF2
:10019000C6010995892B11F47E0102C02196ECCF8E
:1001A000C701DF91CF911F910F91FF90EF90DF90EA
:1001B000CF900895FC01538D448D252F30E0842F7E
:1001C00090E0821B930B541710F0CF96089501977F
:1001D0000895FC01918D828D981761F0828DDF0169
:1001E000A80FB11D5D968C91928D9F5F9F73928F2A
:1001F00090E008958FEF9FEF0895FC01918D828D1F
:10020000981731F0828DE80FF11D858D90E00895EB
:100210008FEF9FEF0895FC01918D228D892F90E043
:10022000805C9F4F821B91098F739927089587E403
:1002300091E00E940B0121E0892B09F420E0822F3C
:100240000895FC01848DDF01A80FB11DA35ABF4F93
:100250002C91848D90E001968F739927848FA689C5
:10026000B7892C93A089B1898C9180648C93938DEC
:10027000848D981306C00288F389E02D80818F7DDC
:1002800080830895EF92FF920F931F93CF93DF9394
:10029000EC0181E0888F9B8D8C8D981305C0E889D7
:1002A000F989808185FD24C0F62E0B8D10E00F5F4B
:1002B0001F4F0F731127E02E8C8DE8120CC00FB664
:1002C00007FCFACFE889F989808185FFF5CFCE0157
:1002D0000E942101F1CF8B8DFE01E80FF11DE35A41
:1002E000FF4FF0820B8FEA89FB898081806207C013
:1002F000EE89FF896083E889F98980818064808341
:1003000081E090E0DF91CF911F910F91FF90EF90EE
:100310000895CF93DF93EC01888D8823C9F0EA8993
:10032000FB89808185FD05C0A889B9898C9186FDEE
:100330000FC00FB607FCF5CF808185FFF2CFA889EB
:10034000B9898C9185FFEDCFCE010E942101E7CFC5
:10035000DF91CF91089580E090E0892B29F00E94F1
:10036000170181110C9400000895833081F028F466
:10037000813099F08230A1F008958730A9F088305B
:10038000B9F08430D1F4809180008F7D03C08091DA
:1003900080008F7780938000089584B58F7702C0A6
:1003A00084B58F7D84BD08958091B0008F7703C0A0
:1003B0008091B0008F7D8093B0000895CF93DF933C
:1003C000282F30E0F901E255FF4F8491F901E656FC
:1003D000FF4FD491F901EA57FF4FC491CC2391F01C
:1003E00081110E94B501EC2FF0E0EE0FFF1FE458E1
:1003F000FF4FA591B491EC91ED2381E090E021F4C1
:1004000080E002C080E090E0DF91CF910895862FD8
:100410000C94DE011F93CF93DF93282F30E0F90176
:10042000E255FF4F8491F901E656FF4FD491F9014F
:10043000EA57FF4FC491CC23C9F0162F81110E94B7
:10044000B501EC2FF0E0EE0FFF1FEE58FF4FA59126
:10045000B4918FB7F894111105C09C91ED2FE095E0
:10046000E92302C0EC91ED2BEC938FBFDF91CF918C
:100470001F910895862F642F0C940A02CF93DF9367
:1004800090E0FC01E656FF4F2491FC01EA57FF4F34
:100490008491882361F190E0880F991FFC01E8594D
:1004A000FF4FC591D491FC01EE58FF4FA591B49137
:1004B000611109C09FB7F8948881209582238883B1
:1004C000EC912E230BC0623061F49FB7F894388111
:1004D000822F809583238883EC912E2B2C939FBFB2
:1004E00006C08FB7F894E8812E2B28838FBFDF9149
:1004F000CF910895862F642F0C943E022FB7F89465
:1005000060914101709142018091430190914401B9
:100510002FBF08950F931F93CF93DF93C82FD62F2C
:1005200086E0C89FF0011124EC51FE4F11A2878D87
:1005300090A181309105F1F01CF4892B49F043C062
:1005400082309105A9F10397F1F560E070E034C0C5
:100550006623C9F161E070E08C2F0E948C000E943C
:100560007E0260933C0270933D0280933E02909322
:100570003F0229C00E947E0200913C0210913D0280
:1005800020913E0230913F02AB01BC01401B510B58
:10059000620B730B80914E0290914F02A0E0B0E08D
:1005A00084179507A607B70718F462E070E004C047
:1005B000D11109C063E070E08C2FDF91CF911F91C2
:1005C0000F910C948C00DF91CF911F910F910895A2
:1005D000CF93DF93EC0160E08E810E940A0261E01C
:1005E0008E810E940A0260E08E810E940A028BE8DE
:1005F00091E00197F1F7DF91CF910895CF92DF92CB
:10060000EF92FF920F931F93CF93DF937C016C01C6
:1006100087E0C80ED11CC0E0D0E0062F10E0B80182
:100620000C2E02C0759567950A94E2F76170F60189
:1006300081916F010E940A022196C430D10579F799
:10064000C701DF91CF911F910F91FF90EF90DF9045
:10065000CF900C94E802CF92DF92EF92FF920F932B
:100660001F93CF93DF93EC01F62E642F8C810E94B1
:100670000A028D818F3F19F060E00E940A028F8587
:100680000F2D10E084FF25C06E0187E0C80ED11C3D
:10069000E12CF12CB8010E2C02C0759567950A94D7
:1006A000E2F76170F60181916F010E940A02FFEF8B
:1006B000EF1AFF0A88E0E816F10461F7CE01DF9136
:1006C000CF911F910F91FF90EF90DF90CF900C94FE
:1006D000E802B80184E0759567958A95E1F7CE0147
:1006E0000E94FE026F2DCE01DF91CF911F910F91DD
:1006F000FF90EF90DF90CF900C94FE0241E00E94BB
:100700002B0381E090E0089540E00C942B03EF92DE
:10071000FF920F931F93CF93DF93EC01623018F099
:100720008F8588608F876B8B1C8A80E48D8B80E13E
:100730008E8B80E58F8B61E08C810E943E028D81E3
:100740008F3F19F061E00E943E0261E08E810E94BD
:100750003E027E0187E0E80EF11C00E010E08F858C
:1007600084FD03C084E090E002C088E090E00817B8
:1007700019074CF461E0F70181917F010E943E026C
:100780000F5F1F4FECCF8BE39DE00197F1F760E027
:100790008C810E940A0260E08E810E940A028D8193
:1007A0008F3F19F060E00E940A026F8564FD1DC052
:1007B00063E0CE010E94FE020BE416E4C80101973B
:1007C000F1F763E0CE010E94FE02C8010197F1F744
:1007D00063E0CE010E94FE0283E592E00197F1F70B
:1007E00062E0CE010E94FE0216C06062CE010E944D
:1007F00084038BE496E40197F1F76F856062CE0184
:100800000E94840383E592E00197F1F76F856062AF
:10081000CE010E9484036F856062CE010E94840332
:1008200084E0888B6CE0CE010E94840361E0CE01FD
:100830000E9484038BE39FE10197F1F782E0898BAB
:1008400066E0CE01DF91CF911F910F91FF90EF9065
:100850000C948403089580E090E008950E9490072E
:100860001F920F920FB60F9211242F933F934F9325
:100870005F936F937F938F939F93AF93BF93EF9308
:10088000FF9387E491E00E942101FF91EF91BF91D6
:10089000AF919F918F917F916F915F914F913F9118
:1008A0002F910F900FBE0F901F9018951F920F92CF
:1008B0000FB60F9211242F938F939F93EF93FF9373
:1008C000E0915701F09158018081E0915D01F09134
:1008D0005E0182FD12C09081809160018F5F8F73F5
:1008E00020916101821751F0E0916001F0E0E95B35
:1008F000FE4F958F8093600101C08081FF91EF9141
:100900009F918F912F910F900FBE0F901F90189570
:100910001F920F920FB60F9211242F933F938F9334
:100920009F93AF93BF938091410190914201A09119
:100930004301B09144013091400123E0230F2D3752
:1009400020F40196A11DB11D05C026E8230F0296D3
:10095000A11DB11D2093400180934101909342015C
:10096000A0934301B093440180913C0190913D01DB
:10097000A0913E01B0913F010196A11DB11D809350
:100980003C0190933D01A0933E01B0933F01BF9184
:10099000AF919F918F913F912F910F900FBE0F902C
:1009A0001F90189510924A011092490188EE93E029
:1009B000A0E0B0E080934B0190934C01A0934D01D7
:1009C000B0934E0187E191E09093480180934701F5
:1009D00085EC90E0909354018093530184EC90E077
:1009E000909356018093550180EC90E090935801CC
:1009F0008093570181EC90E090935A0180935901C4
:100A000082EC90E090935C0180935B0186EC90E037
:100A100090935E0180935D011092600110926101DC
:100A200010926201109263011092560210925502C8
:100A300083E391E090935402809353028DE080937E
:100A400057028FEF809358028CE0809359028BE01D
:100A500080935A028AE080935B0289E080935C0273
:100A600088E080935D0210925E0210925F02109205
:100A70006002109261021092620261E083E592E0EE
:100A80000E9487031092E6011092EA011092E90198
:100A90001092EB0189E291E09093E5018093E401EB
:100AA00080E090E0FC01EC51FE4F148E10A2178EF6
:100AB00011A206968C339105A9F783E091E09093FB
:100AC00047028093460280E091E090934902809330
:100AD000480284E080934A0283E080934B0287E0DF
:100AE00091E090934502809344028AE090E09093D5
:100AF0004D0280934C0284EF91E090934F028093DB
:100B00004E02109252021092510210924002109224
:100B10004102109242021092430210925002089534
:100B2000789484B5826084BD84B5816084BD85B5C8
:100B3000826085BD85B5816085BD80916E008160D4
:100B400080936E001092810080918100826080937A
:100B5000810080918100816080938100809180007C
:100B60008160809380008091B10084608093B100A7
:100B70008091B00081608093B00080917A008460A1
:100B800080937A0080917A00826080937A008091CD
:100B90007A00816080937A0080917A0080688093E7
:100BA0007A001092C10062E083E592E00E94870320
:100BB000E0915701F091580182E08083E091530168
:100BC000F09154011082E0915501F09156018FECA3
:100BD000808310925F01E0915B01F0915C0186E0FF
:100BE0008083E0915901F0915A0180818061808376
:100BF000E0915901F0915A01808188608083E091F1
:100C00005901F0915A01808180688083E0915901F7
:100C1000F0915A0180818F7D8083412C512C3201CB
:100C20004394CC24CA94DC2C81E0809350020E942F
:100C30007E020091400210914102209142023091C7
:100C40004302AB01BC01401B510B620B730B809143
:100C50004C0290914D02A0E0B0E084179507A607E2
:100C6000B70708F006C1C0E080914A02C81760F4D7
:100C7000E0914602F0914702EC0FF11D62E08081A5
:100C80000E943E02CF5FF0CF912C80914B029816CC
:100C900008F05FC0092D10E0E0914802F091490290
:100CA000E00FF11F61E080810E943E02E091480266
:100CB000F0914902E00FF11F60E080810E940A027A
:100CC000D301C201092C04C0880F991FAA1FBB1FA2
:100CD0000A94D2F75C017C01E094F094812C80911D
:100CE0004A028816F8F4C82DD0E0E0914602F0914F
:100CF0004702EC0FFD1F80810E94DE012496CC0F7D
:100D0000DD1FCC51DE4F892B29F4888199818A29F6
:100D10009B2904C0888199818E219F219983888392
:100D20008394DDCFE0914802F0914902E00FF11F7A
:100D300061E080810E940A028091480290914902FC
:100D4000FC01E00FF11F60E080810E943E0293945D
:100D50009CCFE0E0F2E083819481892B21F4108222
:100D6000D282C1821582369682E0EC33F80799F779
:100D700010E006E080914A02181708F052C0F12CEA
:100D8000C12FD0E0CC0FDD1FC451DE4F20914B02AC
:100D9000F21608F044C0688179810F2C02C0769564
:100DA00067950A94E2F761707727129F90011124EA
:100DB0002F0D311DE0914402F0914502E20FF31F27
:100DC000A081E4EEF1E080E0458D568D4217530797
:100DD00011F461701AC08F5F36968A30A9F7672BBD
:100DE000E1F0E0E0F2E080E090E04081411110C0ED
:100DF000089FF001099FF00D1124EC51FE4FA48FC4
:100E0000368F258F10A2178E61E00E948A0205C0DE
:100E1000019636968A30910541F7F394B7CF1F5F5C
:100E2000A9CF80E090E0C0E0FC01EC51FE4F21A191
:100E30002111C1E006968C339105B1F70E947E0224
:100E40006093400270934102809342029093430268
:100E5000CC2379F080910502882359F08091030218
:100E600090910402019729F4C0910002C83421F442
:100E700019C0109250024BC0CF34A1F0C43591F08C
:100E8000C93481F0C23571F0C53461F0C33551F019
:100E9000C53541F0C93331F0CA3221F0C03311F009
:100EA000C332A9F5E1E0809166028111E0E0E195AD
:100EB000F0E0ED5AFD4F648980914501680F60684C
:100EC00083E592E00E948403E0915302F091540282
:100ED0000190F081E02D6C2F83E592E009958091DF
:100EE00045019091460101969093460180934501FA
:100EF00040976CF061E083E592E00E9484038BE30D
:100F00009FE10197F1F710924601109245010E946E
:100F1000AB018ACEEE0FFF1F0590F491E02D0994EE
:0E0F200081E090E0F8940C949507F894FFCFD0
:100F2E0007060504030200484F54495245535539EC
:100F3E002A3023000000004201AF00DA0089010BC5
:100F4E0001E900FD00000000007A023A02070200EB
:0C0F5E000000007E03AF002B042A0400FA
:107E0000112484B714BE81FFF0D085E080938100F7
:107E100082E08093C00088E18093C10086E0809377
:107E2000C20080E18093C4008EE0C9D0259A86E02C
:107E300020E33CEF91E0309385002093840096BBD3
:107E4000B09BFECF1D9AA8958150A9F7CC24DD24C4
:107E500088248394B5E0AB2EA1E19A2EF3E0BF2EE7
:107E6000A2D0813461F49FD0082FAFD0023811F036
:107E7000013811F484E001C083E08DD089C08234E0
:107E800011F484E103C0853419F485E0A6D080C0E4
:107E9000853579F488D0E82EFF2485D0082F10E0AE
:107EA000102F00270E291F29000F111F8ED06801E7
:107EB0006FC0863521F484E090D080E0DECF843638
:107EC00009F040C070D06FD0082F6DD080E0C81688
:107ED00080E7D80618F4F601B7BEE895C0E0D1E017
:107EE00062D089930C17E1F7F0E0CF16F0E7DF06D8
:107EF00018F0F601B7BEE89568D007B600FCFDCFD4
:107F0000A601A0E0B1E02C9130E011968C91119780
:107F100090E0982F8827822B932B1296FA010C0160
:107F200087BEE89511244E5F5F4FF1E0A038BF0790
:107F300051F7F601A7BEE89507B600FCFDCF97BE46
:107F4000E89526C08437B1F42ED02DD0F82E2BD052
:107F50003CD0F601EF2C8F010F5F1F4F84911BD097
:107F6000EA94F801C1F70894C11CD11CFA94CF0C13
:107F7000D11C0EC0853739F428D08EE10CD085E9AC
:107F80000AD08FE07ACF813511F488E018D01DD067
:107F900080E101D065CF982F8091C00085FFFCCF94
:107FA0009093C60008958091C00087FFFCCF809118
:107FB000C00084FD01C0A8958091C6000895E0E648
:107FC000F0E098E1908380830895EDDF803219F02E
:107FD00088E0F5DFFFCF84E1DECF1F93182FE3DFCA
:107FE0001150E9F7F2DF1F91089580E0E8DFEE27F6
:047FF000FF270994CA
:027FFE00040479
:0400000300007E007B
:00000001FF
