:100000000C945D000C9485000C9485000C94850084
:100010000C9485000C9485000C9485000C9485004C
:100020000C9485000C9485000C9485000C9485003C
:100030000C9485000C9485000C9485000C9485002C
:100040000C94E3020C9485000C9485000C948500BC
:100050000C9485000C9485000C9485000C9485000C
:100060000C9485000C94850000000008000201003B
:100070000003040700000000000000000000000072
:10008000250028002B0000000000240027002A0083
:10009000040404040404040402020202020203032E
:1000A0000303030301020408102040800102040836
:1000B0001020010204081020DD0911241FBECFEF1B
:1000C000D8E0DEBFCDBF11E0A0E0B1E0E2E1F4E1B5
:1000D00002C005900D92AC30B107D9F721E0ACE039
:1000E000B1E001C01D92AD32B207E1F710E0CDE5FD
:1000F000D0E004C02197FE010E94FC09CC35D10755
:10010000C9F70E942D030C94070A0C94000090E09C
:10011000FC01EC55FF4F2491FC01E057FF4F849107
:10012000882399F090E0880F991FFC01EA57FF4F50
:10013000A591B491FC01E458FF4F859194918FB73C
:10014000F894EC91E22BEC938FBF0895E0911501A8
:10015000F09116010190F081E02D682F85E191E08A
:100160000994CF92DF92EF92FF920F931F93CF9358
:10017000DF936C017A018B01C0E0D0E0CE15DF0582
:1001800089F0D8016D918D01D601ED91FC9101901E
:10019000F081E02DC6010995892B11F47E0102C082
:1001A0002196ECCFC701DF91CF911F910F91FF9066
:1001B000EF90DF90CF90089590E0FC01E859FF4F59
:1001C0003491FC01EC55FF4F2491FC01E057FF4FA7
:1001D000E491EE2309F43BC0332339F1333091F03D
:1001E00038F43130A9F0323001F584B58F7D12C07A
:1001F000373091F03830A1F03430B9F4809180007C
:100200008F7D03C0809180008F77809380000DC028
:1002100084B58F7784BD09C08091B0008F7703C00B
:100220008091B0008F7D8093B000F0E0EE0FFF1F53
:10023000E458FF4FA591B4918FB7F894EC916111F8
:1002400003C020952E2301C02E2B2C938FBF089521
:100250003FB7F8948091110190911201A091130180
:10026000B091140126B5A89B05C02F3F19F0019647
:10027000A11DB11D3FBFBA2FA92F982F8827820F2C
:10028000911DA11DB11DBC01CD0142E0660F771F7C
:10029000881F991F4A95D1F708958F929F92AF9228
:1002A000BF92CF92DF92EF92FF926B017C010E948E
:1002B00028014B015C01C114D104E104F104F1F007
:1002C0000E942801DC01CB0188199909AA09BB0900
:1002D000883E9340A105B10570F321E0C21AD10810
:1002E000E108F10888EE880E83E0981EA11CB11C7D
:1002F000C114D104E104F10419F7DDCFFF90EF90B0
:10030000DF90CF90BF90AF909F908F900895CF9344
:10031000DF93EC0160E08E810E94DC0061E08E8161
:100320000E94DC0060E08E810E94DC008BE891E09E
:100330000197F1F7DF91CF910895CF92DF92EF927D
:10034000FF920F931F93CF93DF937C016C0187E0A3
:10035000C80ED11CC0E0D0E0062F10E0B8010C2E72
:1003600002C0759567950A94E2F76170F601819174
:100370006F010E94DC002196C430D10579F7C701D6
:10038000DF91CF911F910F91FF90EF90DF90CF9071
:100390000C948701CF92DF92EF92FF920F931F93FD
:1003A000CF93DF93EC01F62E642F8C810E94DC004A
:1003B0008D818F3F19F060E00E94DC008F850F2D4A
:1003C00010E084FF25C06E0187E0C80ED11CE12C2F
:1003D000F12CB8010E2C02C0759567950A94E2F7CE
:1003E0006170F60181916F010E94DC00FFEFEF1A4E
:1003F000FF0A88E0E816F10461F7CE01DF91CF91A2
:100400001F910F91FF90EF90DF90CF900C94870198
:10041000B80184E0759567958A95E1F7CE010E9451
:100420009D016F2DCE01DF91CF911F910F91FF9014
:10043000EF90DF90CF900C949D0141E00E94CA01A3
:1004400081E090E0089540E00C94CA01643008F027
:1004500063E090912801691710F06FEF690FE62FA4
:10046000F0E0EB5EFE4F9489682F690F606885E1CC
:1004700091E00C94230261E00E9423028BE39FE150
:100480000197F1F70895EF92FF920F931F93CF9387
:10049000DF93EC01623018F08F8588608F876B8B5B
:1004A0001C8A80E48D8B80E18E8B80E58F8B8C8124
:1004B0000E9487008D818F3F11F00E9487008E81FE
:1004C0000E9487007E0187E0E80EF11C00E010E04A
:1004D0008F8584FD03C084E090E002C088E090E056
:1004E0000817190744F4F70181917F010E948700E2
:1004F0000F5F1F4FEDCF8BE39DE00197F1F760E0B9
:100500008C810E94DC0060E08E810E94DC008D8185
:100510008F3F19F060E00E94DC006F8564FD1DC014
:1005200063E0CE010E949D010BE416E4C80101972F
:10053000F1F763E0CE010E949D01C8010197F1F738
:1005400063E0CE010E949D0183E592E00197F1F7FF
:1005500062E0CE010E949D0116C06062CE010E9441
:1005600023028BE496E40197F1F76F856062CE0178
:100570000E94230283E592E00197F1F76F856062A4
:10058000CE010E9423026F856062CE010E94230289
:1005900084E0888B6CE0CE010E942302CE010E9491
:1005A0003B0282E0898B66E0CE01DF91CF911F9103
:1005B0000F91FF90EF900C942302089580E090E05B
:1005C00008950E94020A1F920F920FB60F921124F3
:1005D0002F933F938F939F93AF93BF9380910D0180
:1005E00090910E01A0910F01B091100130910C017A
:1005F00023E0230F2D3720F40196A11DB11D05C066
:1006000026E8230F0296A11DB11D20930C018093B3
:100610000D0190930E01A0930F01B09310018091F2
:10062000110190911201A0911301B0911401019652
:10063000A11DB11D8093110190931201A09313018C
:10064000B0931401BF91AF919F918F913F912F91E2
:100650000F900FBE0F901F901895789484B582600C
:1006600084BD84B5816084BD85B5826085BD85B556
:10067000816085BD80916E00816080936E001092D4
:10068000810080918100826080938100809181004F
:1006900081608093810080918000816080938000E0
:1006A0008091B10084608093B1008091B00081603E
:1006B0008093B00080917A00846080937A0080916A
:1006C0007A00826080937A0080917A0081608093C2
:1006D0007A0080917A00806880937A001092C1003D
:1006E00062E085E191E00E944302C0E0D0E060E07A
:1006F0008FE00E94260289E60E94A6006AEF70E061
:1007000080E090E00E944D0185E191E00E943B0273
:1007100060E08FE00E9426028EE60E94A60061E063
:100720008EE00E94260289E60E94A6006AEF70E031
:1007300080E090E00E944D0185E191E00E943B0243
:1007400060E08FE00E94260284E60E94A60061E03D
:100750008EE00E9426028EE60E94A6006AEF70E0FC
:1007600080E090E00E944D0185E191E00E943B0213
:1007700060E08FE00E94260282E70E94A60061E00E
:100780008EE00E94260284E60E94A6006AEF70E0D6
:1007900080E090E00E944D0185E191E00E943B02E3
:1007A00060E08FE00E94260281E60E94A60061E0E0
:1007B0008EE00E94260282E70E94A6006AEF70E0A7
:1007C00080E090E00E944D0185E191E00E943B02B3
:1007D00061E08EE00E94260281E60E94A6006AEF98
:1007E00070E080E090E00E944D0185E191E00E9480
:1007F0003B0260E08EE00E94260289E60E94A6008D
:100800006AEF70E080E090E00E944D0185E191E0A8
:100810000E943B0260E08EE00E9426028EE60E946B
:10082000A60061E08DE00E94260289E60E94A600F3
:100830006AEF70E080E090E00E944D0185E191E078
:100840000E943B0260E08EE00E94260284E60E9445
:10085000A60061E08DE00E9426028EE60E94A600BE
:100860006AEF70E080E090E00E944D0185E191E048
:100870000E943B0260E08EE00E94260282E70E9416
:10088000A60061E08DE00E94260284E60E94A60098
:100890006AEF70E080E090E00E944D0185E191E018
:1008A0000E943B0260E08EE00E94260281E60E94E8
:1008B000A60061E08DE00E94260282E70E94A60069
:1008C0006AEF70E080E090E00E944D0185E191E0E8
:1008D0000E943B0261E08DE00E94260281E60E94B8
:1008E000A6006AEF70E080E090E00E944D0185E193
:1008F00091E00E943B0260E08DE00E94260289E6C2
:100900000E94A6006AEF70E080E090E00E944D0136
:1009100085E191E00E943B0260E08DE00E942602AA
:100920008EE60E94A60061E08CE00E94260289E625
:100930000E94A6006AEF70E080E090E00E944D0106
:1009400085E191E00E943B0260E08DE00E9426027A
:1009500084E60E94A60061E08CE00E9426028EE6FA
:100960000E94A6006AEF70E080E090E00E944D01D6
:1009700085E191E00E943B0260E08DE00E9426024A
:1009800082E70E94A60061E08CE00E94260284E6D5
:100990000E94A6006AEF70E080E090E00E944D01A6
:1009A00085E191E00E943B0260E08DE00E9426021A
:1009B00081E60E94A60061E08CE00E94260282E7A8
:1009C0000E94A6006AEF70E080E090E00E944D0176
:1009D00085E191E00E943B0261E08CE00E942602EA
:1009E00081E60E94A6006AEF70E080E090E00E943D
:1009F0004D0185E191E00E943B0260E08CE00E94A5
:100A0000260288E70E94A60061E08BE00E94260291
:100A100088E70E94A60064EF71E080E090E00E9409
:100A20004D0185E191E00E943B0260E08BE00E9475
:100A3000260287E60E94A6006AEF70E080E090E060
:100A40000E944D0185E191E00E943B0260E08BE055
:100A50000E94260285E70E94A60061E08AE00E94CB
:100A6000260287E60E94A6006AEF70E080E090E030
:100A70000E944D0185E191E00E943B0260E08BE025
:100A80000E9426028EE60E94A60061E08AE00E9493
:100A9000260285E70E94A6006AEF70E080E090E001
:100AA0000E944D0185E191E00E943B0260E08BE0F5
:100AB0000E9426028AE60E94A60061E08AE00E9467
:100AC00026028EE60E94A6006AEF70E080E090E0C9
:100AD0000E944D0185E191E00E943B0260E08BE0C5
:100AE0000E9426028FE60E94A60061E08AE00E9432
:100AF00026028AE60E94A6006AEF70E080E090E09D
:100B00000E944D0185E191E00E943B0261E08AE094
:100B10000E9426028FE60E94A6006AEF70E080E045
:100B200090E00E944D0185E191E00E943B0260E06F
:100B30008AE00E94260287E60E94A6006AEF70E023
:100B400080E090E00E944D0185E191E00E943B022F
:100B500060E08AE00E94260285E70E94A60061E02C
:100B600089E00E94260287E60E94A6006AEF70E0F4
:100B700080E090E00E944D0185E191E00E943B02FF
:100B800060E08AE00E9426028EE60E94A60061E0F4
:100B900089E00E94260285E70E94A6006AEF70E0C5
:100BA00080E090E00E944D0185E191E00E943B02CF
:100BB00060E08AE00E9426028AE60E94A60061E0C8
:100BC00089E00E9426028EE60E94A6006AEF70E08D
:100BD00080E090E00E944D0185E191E00E943B029F
:100BE00060E08AE00E9426028FE60E94A60061E093
:100BF00089E00E9426028AE60E94A6006AEF70E061
:100C000080E090E00E944D0185E191E00E943B026E
:100C100061E089E00E9426028FE60E94A6006AEF4A
:100C200070E080E090E00E944D0185E191E00E943B
:100C30003B0260E089E00E94260287E60E94A6004F
:100C40006AEF70E080E090E00E944D0185E191E064
:100C50000E943B0260E089E00E94260285E70E9434
:100C6000A60061E088E00E94260287E60E94A600B6
:100C70006AEF70E080E090E00E944D0185E191E034
:100C80000E943B0260E089E00E9426028EE60E94FC
:100C9000A60061E088E00E94260285E70E94A60087
:100CA0006AEF70E080E090E00E944D0185E191E004
:100CB0000E943B0260E089E00E9426028AE60E94D0
:100CC000A60061E088E00E9426028EE60E94A6004F
:100CD0006AEF70E080E090E00E944D0185E191E0D4
:100CE0000E943B0260E089E00E9426028FE60E949B
:100CF000A60061E088E00E9426028AE60E94A60023
:100D00006AEF70E080E090E00E944D0185E191E0A3
:100D10000E943B0261E088E00E9426028FE60E946A
:100D2000A6006AEF70E080E090E00E944D0185E14E
:100D300091E00E943B0260E088E00E94260288E782
:100D40000E94A60061E087E00E94260288E70E94D8
:100D5000A60064EF71E080E090E00E944D0185E123
:100D600091E00E943B0260E087E00E94260289E653
:100D70000E94A6006AEF70E080E090E00E944D01C2
:100D800085E191E00E943B0260E087E00E9426023C
:100D90008CE60E94A60061E086E00E94260289E6B9
:100DA0000E94A6006AEF70E080E090E00E944D0192
:100DB00085E191E00E943B0260E087E00E9426020C
:100DC00088E60E94A60061E086E00E9426028CE68A
:100DD0000E94A6006AEF70E080E090E00E944D0162
:100DE00085E191E00E943B0260E087E00E942602DC
:100DF00081E60E94A60061E086E00E94260288E665
:100E00000E94A6006AEF70E080E090E00E944D0131
:100E100085E191E00E943B0260E087E00E942602AB
:100E20008DE60E94A60061E086E00E94260281E62F
:100E30000E94A6006AEF70E080E090E00E944D0101
:100E400085E191E00E943B0261E086E00E9426027B
:100E50008DE60E94A6006AEF70E080E090E00E94BC
:100E60004D0185E191E00E943B0260E086E00E9436
:100E7000260289E60E94A6006AEF70E080E090E01A
:100E80000E944D0185E191E00E943B0260E086E016
:100E90000E9426028CE60E94A60061E085E00E9486
:100EA000260289E60E94A6006AEF70E080E090E0EA
:100EB0000E944D0185E191E00E943B0260E086E0E6
:100EC0000E94260288E60E94A60061E085E00E945A
:100ED00026028CE60E94A6006AEF70E080E090E0B7
:100EE0000E944D0185E191E00E943B0260E086E0B6
:100EF0000E94260281E60E94A60061E085E00E9431
:100F0000260288E60E94A6006AEF70E080E090E08A
:100F10000E944D0185E191E00E943B0260E086E085
:100F20000E9426028DE60E94A60061E085E00E94F4
:100F3000260281E60E94A6006AEF70E080E090E061
:100F40000E944D0185E191E00E943B0261E085E055
:100F50000E9426028DE60E94A6006AEF70E080E003
:100F600090E00E944D0185E191E00E943B0260E02B
:100F700085E00E94260289E60E94A6006AEF70E0E2
:100F800080E090E00E944D0185E191E00E943B02EB
:100F900060E085E00E9426028CE60E94A60061E0E7
:100FA00084E00E94260289E60E94A6006AEF70E0B3
:100FB00080E090E00E944D0185E191E00E943B02BB
:100FC00060E085E00E94260288E60E94A60061E0BB
:100FD00084E00E9426028CE60E94A6006AEF70E080
:100FE00080E090E00E944D0185E191E00E943B028B
:100FF00060E085E00E94260281E60E94A60061E092
:1010000084E00E94260288E60E94A6006AEF70E053
:1010100080E090E00E944D0185E191E00E943B025A
:1010200060E085E00E9426028DE60E94A60061E055
:1010300084E00E94260281E60E94A6006AEF70E02A
:1010400080E090E00E944D0185E191E00E943B022A
:1010500061E084E00E9426028DE60E94A6006AEF0D
:1010600070E080E090E00E944D0185E191E00E94F7
:101070003B0260E084E00E94260288E70E94A6000E
:1010800061E083E00E94260288E70E94A60064EFE8
:1010900071E080E090E00E944D0185E191E00E94C6
:1010A0003B0260E083E00E94260283E70E94A600E4
:1010B0006AEF70E080E090E00E944D0185E191E0F0
:1010C0000E943B0260E083E00E94260281E60E94CB
:1010D000A60061E082E00E94260283E70E94A6004B
:1010E0006AEF70E080E090E00E944D0185E191E0C0
:1010F0000E943B0260E083E00E94260282E70E9499
:10110000A60061E082E00E94260281E60E94A6001D
:101110006AEF70E080E090E00E944D0185E191E08F
:101120000E943B0260E083E00E94260289E60E9462
:10113000A60061E082E00E94260282E70E94A600EB
:101140006AEF70E080E090E00E944D0185E191E05F
:101150000E943B0260E083E00E94260280E70E943A
:10116000A60061E082E00E94260289E60E94A600B5
:101170006AEF70E080E090E00E944D0185E191E02F
:101180000E943B0261E082E00E94260280E70E940A
:10119000A6006AEF70E080E090E00E944D0185E1DA
:1011A00091E00E943B0260E082E00E94260283E719
:1011B0000E94A6006AEF70E080E090E00E944D017E
:1011C00085E191E00E943B0260E082E00E942602FD
:1011D00081E60E94A60061E081E00E94260283E78A
:1011E0000E94A6006AEF70E080E090E00E944D014E
:1011F00085E191E00E943B0260E082E00E942602CD
:1012000082E70E94A60061E081E00E94260281E65A
:101210000E94A6006AEF70E080E090E00E944D011D
:1012200085E191E00E943B0260E082E00E9426029C
:1012300089E60E94A60061E081E00E94260282E722
:101240000E94A6006AEF70E080E090E00E944D01ED
:1012500085E191E00E943B0260E082E00E9426026C
:1012600080E70E94A60061E081E00E94260289E6F4
:101270000E94A6006AEF70E080E090E00E944D01BD
:1012800085E191E00E943B0261E081E00E9426023C
:1012900080E70E94A6006AEF70E080E090E00E9484
:1012A0004D0185E191E00E943B0260E081E00E94F7
:1012B000260283E70E94A6006AEF70E080E090E0DB
:1012C0000E944D0185E191E00E943B0260E081E0D7
:1012D0000E94260281E60E94A60061E080E00E9452
:1012E000260283E70E94A6006AEF70E080E090E0AB
:1012F0000E944D0185E191E00E943B0260E081E0A7
:101300000E94260282E70E94A60061E080E00E941F
:10131000260281E60E94A6006AEF70E080E090E07D
:101320000E944D0185E191E00E943B0260E081E076
:101330000E94260289E60E94A60061E080E00E94E9
:10134000260282E70E94A6006AEF70E080E090E04B
:101350000E944D0185E191E00E943B0260E081E046
:101360000E94260280E70E94A60061E080E00E94C1
:10137000260289E60E94A6006AEF70E080E090E015
:101380000E944D0185E191E00E943B0261E080E016
:101390000E94260280E70E94A6006AEF70E080E0CB
:1013A00090E00E944D0185E191E00E943B02209770
:1013B00009F49DC90E9400009AC9E5E1F1E0138299
:1013C000128284E091E0918380838CE084838FEFAC
:1013D00085838BE0868385E0878384E0808783E054
:1013E000818782E082871386148615861686178683
:1013F00061E0CF010C944302EE0FFF1F0590F491C2
:10140000E02D099481E090E0F8940C94070AF89498
:02141000FFCF0C
:0C141200000000001D02B100DE02DD023F
:00000001FF
