:100000000C9462000C948A000C948A000C948A0070
:100010000C948A000C948A000C948A000C948A0038
:100020000C948A000C948A000C948A000C948A0028
:100030000C948A000C948A000C948A000C948A0018
:100040000C9446040C948A000C948A000C948A0048
:100050000C948A000C948A000C948A000C948A00F8
:100060000C948A000C948A000000000024002700F1
:100070002A0000000000250028002B0004040404CE
:100080000404040402020202020203030303030342
:10009000010204081020408001020408102001021F
:1000A00004081020000000080002010000030407FB
:1000B00000000000000000000000000023002600F7
:1000C0002900F10511241FBECFEFD8E0DEBFCDBF60
:1000D00011E0A0E0B1E0E4E1F0E102C005900D9292
:1000E000A233B107D9F721E0A2E3B1E001C01D922C
:1000F000A536B207E1F710E0C2E6D0E004C02197D0
:10010000FE010E94FD07C136D107C9F70E94900485
:100110000C9408080C9400008F929F92AF92BF92AB
:10012000CF92DF92EF92FF92CF93DF93A0914201A3
:10013000882311F03A2F01C030E08091430190E014
:10014000880F991F88549F4FC0904801D090490153
:10015000E0904A01F0904B0140E050E0BA01FC0110
:10016000C591D49128812A2323130FC04A015B0132
:100170002FEF821A920AA20AB20A4C155D056E058B
:100180007F0538F4B501A401EACF342F252FCB0128
:1001900004C030E020E080E090E0632F722FDF9118
:1001A000CF91FF90EF90DF90CF90BF90AF909F9056
:1001B0008F900895CF92DF92EF92FF920F931F934B
:1001C000CF93DF936C017A018B01C0E0D0E0CE15B4
:1001D000DF0589F0D8016D918D01D601ED91FC917B
:1001E0000190F081E02DC6010995892B11F47E0163
:1001F00002C02196ECCFC701DF91CF911F910F91E3
:10020000FF90EF90DF90CF90089590E0FC01EC55C7
:10021000FF4F3491FC01E057FF4F2491FC01E4585B
:10022000FF4FE491EE2309F43BC0332339F133301F
:1002300091F038F43130A9F0323001F584B58F7D7A
:1002400012C0373091F03830A1F03430B9F48091D9
:1002500080008F7D03C0809180008F778093800025
:100260000DC084B58F7784BD09C08091B0008F77B1
:1002700003C08091B0008F7D8093B000F0E0EE0F5E
:10028000FF1FEE58FF4FA591B4918FB7F894EC91F2
:10029000611103C020952E2301C02E2B2C938FBFFC
:1002A0000895CF93DF9390E0FC01E057FF4F249136
:1002B000FC01E458FF4F8491882361F190E0880F9E
:1002C000991FFC01E859FF4FC591D491FC01EE58EC
:1002D000FF4FA591B491611109C09FB7F89488812F
:1002E000209582238883EC912E230BC0623061F429
:1002F0009FB7F8943881822F809583238883EC916F
:100300002E2B2C939FBF06C08FB7F894E8812E2B1D
:1003100028838FBFDF91CF9108953FB7F8948091E4
:10032000330190913401A0913501B091360126B589
:10033000A89B05C02F3F19F00196A11DB11D3FBF1D
:10034000BA2FA92F982F8827820F911DA11DB11DAB
:10035000BC01CD0142E0660F771F881F991F4A95A7
:10036000D1F708958F929F92AF92BF92CF92DF9272
:10037000EF92FF926B017C010E948D014B015C01A9
:10038000C114D104E104F104F1F00E948D01DC01FB
:10039000CB0188199909AA09BB09883E9340A10598
:1003A000B10570F321E0C21AD108E108F10888EE26
:1003B000880E83E0981EA11CB11CC114D104E10475
:1003C000F10419F7DDCFFF90EF90DF90CF90BF9051
:1003D000AF909F908F900895CF92DF92EF92FF920F
:1003E0000F931F93CF93DF93CDB7DEB7C054D140A7
:1003F0000FB6F894DEBF0FBECDBF2FB7F894809133
:10040000370190913801A0913901B0913A012FBF85
:10041000409144015091450160914601709147011E
:100420008C019D01041B150B260B370BB901A8018C
:10043000403D57406105710518F480914C01BCC0E6
:100440008093440190934501A0934601B0934701E6
:1004500010923F0110923E0110923D0110923C011A
:1004600010923B0161E0809140010E9405016AEF1A
:1004700070E080E090E00E94B20161E08091400174
:100480000E94510160E0809140010E94050164E1F9
:1004900070E080E090E00E94B201F89461E0809109
:1004A00040010E9405018BE990E00197F1F762E0BD
:1004B000809140010E94510183E290E00197F1F7A1
:1004C00080E00E948C00672B682B692B21F410922E
:1004D0004C0178943EC081E00E948C00672B682B11
:1004E000692BA9F38E010F5F1F4F6E012FEBC21A0C
:1004F0002EEFD20A780180E00E948C00F701608321
:1005000071838283938381E00E948C00F70164836E
:10051000758386839783F8E0EF0EF11CEC14FD04DD
:1005200051F7789420E030E0F801408151816281F8
:100530007381C480D580E680F7804115510561053F
:10054000710529F0C114D104E104F10421F41092E1
:100550004C0180E031C0F90183E0F595E7958A957B
:10056000E1F7E55CFE4F8081880F4C155D056E0557
:100570007F0508F4816080832F5F3F4F085F1F4F26
:100580002832310589F620913F0130E040913B014E
:1005900080913C0190E0840F911D40913D01840FBA
:1005A000911D40913E01840F911D9927281739070D
:1005B00071F681E080934C01C05CDE4F0FB6F89479
:1005C000DEBF0FBECDBFDF91CF911F910F91FF9086
:1005D000EF90DF90CF900895CF93DF93EC0160E030
:1005E0008E810E94050161E08E810E94050160E01C
:1005F0008E810E9405018BE891E00197F1F7DF9170
:10060000CF910895CF92DF92EF92FF920F931F93B5
:10061000CF93DF937C016C0187E0C80ED11CC0E052
:10062000D0E0062F10E0B8010C2E02C0759567953A
:100630000A94E2F76170F60181916F010E94050151
:100640002196C430D10579F7C701DF91CF911F9171
:100650000F91FF90EF90DF90CF900C94EC02CF922F
:10066000DF92EF92FF920F931F93CF93DF93EC01F2
:10067000F62E642F8C810E9405018D818F3F19F029
:1006800060E00E9405018F850F2D10E084FF25C0DA
:100690006E0187E0C80ED11CE12CF12CB8010E2CA4
:1006A00002C0759567950A94E2F76170F601819131
:1006B0006F010E940501FFEFEF1AFF0A88E0E816BC
:1006C000F10461F7CE01DF91CF911F910F91FF905F
:1006D000EF90DF90CF900C94EC02B80184E0759518
:1006E00067958A95E1F7CE010E9402036F2DCE0136
:1006F000DF91CF911F910F91FF90EF90DF90CF90FE
:100700000C94020341E00E942F0381E090E00895E1
:1007100040E00C942F03EF92FF920F931F93CF931F
:10072000DF93EC01623018F08F8588608F876B8BC8
:100730001C8A80E48D8B80E18E8B80E58F8B61E05D
:100740008C810E9451018D818F3F19F061E00E94E0
:10075000510161E08E810E9451017E0187E0E80E27
:10076000F11C00E010E08F8584FD03C084E090E080
:1007700002C088E090E0081719074CF461E0F70127
:1007800081917F010E9451010F5F1F4FECCF8BE3DE
:100790009DE00197F1F760E08C810E94050160E027
:1007A0008E810E9405018D818F3F19F060E00E94CB
:1007B00005016F8564FD1DC063E0CE010E94020348
:1007C0000BE416E4C8010197F1F763E0CE010E9443
:1007D0000203C8010197F1F763E0CE010E94020312
:1007E00083E592E00197F1F762E0CE010E940203F7
:1007F00016C06062CE010E9488038BE496E40197E4
:10080000F1F76F856062CE010E94880383E592E074
:100810000197F1F76F856062CE010E9488036F85B2
:100820006062CE010E94880384E0888B6CE0CE0178
:100830000E94880361E0CE010E9488038BE39FE160
:100840000197F1F782E0898B66E0CE01DF91CF91CD
:100850001F910F91FF90EF900C948803089580E012
:1008600090E00895009769F0FC0101900020E9F7FD
:100870003197AF01481B590BBC018DE491E00C94FA
:10088000DA0080E090E008950E9403081F920F9222
:100890000FB60F9211242F933F938F939F93AF9393
:1008A000BF938091370190913801A0913901B091A7
:1008B0003A013091320123E0230F2D3720F40196C5
:1008C000A11DB11D05C026E8230F0296A11DB11D73
:1008D000209332018093370190933801A09339011E
:1008E000B0933A018091330190913401A091350188
:1008F000B09136010196A11DB11D809333019093F3
:100900003401A0933501B0933601BF91AF919F910F
:100910008F913F912F910F900FBE0F901F901895C0
:10092000789484B5826084BD84B5816084BD85B5CA
:10093000826085BD85B5816085BD80916E008160D6
:1009400080936E001092810080918100826080937C
:10095000810080918100816080938100809180007E
:100960008160809380008091B10084608093B100A9
:100970008091B00081608093B00080917A008460A3
:1009800080937A0080917A00826080937A008091CF
:100990007A00816080937A0080917A0080688093E9
:1009A0007A001092C10062E08DE491E00E948B0316
:1009B00062E0809140010E94510180E398EFAFEF27
:1009C000BFEF8093440190934501A0934601B093FB
:1009D0004701CBE3DFE18AE0F82E00E010E09FED75
:1009E000E92E68EE73E080E090E00E94B2010E9480
:1009F000EC018823A1F1809141018B3041F178F124
:100A00008551823060F560913B0170E080E090E0BC
:100A10000E94CD0620E030E040E853E40E945B07EE
:100A20004B015C0180913C01682F70E080E090E018
:100A30000E94CF069B01AC01C501B4010E943206A1
:100A40002DEC3CEC4CEC5DE30E945B070CC060912C
:100A50003B0170E080E090E00E94CD0604C060E0C1
:100A600070E080EC9FE70E949E06D62E0E94EC016B
:100A70008823C9F1909141019B3029F0A0F1955153
:100A8000923048F030C060913D0170E080E090E02D
:100A90000E94CD062CC0C0903D016C2D6F7770E098
:100AA00080E090E00E94CF0620E030E040E853E490
:100AB0000E945B074B015C0160913E0170E080E0A9
:100AC00090E00E94CF069B01AC01C501B4010E94D9
:100AD00032062DEC3CEC4CEC5DE30E945B07C7FE5C
:100AE00006C0905804C060E070E080EC9FE70E9470
:100AF0009E06C62E6D2D70E080E090E00E94CD062F
:100B00009B01AC010E94C807811150C06C2D70E0A0
:100B100080E090E00E94CD069B01AC010E94C807D6
:100B2000811144C08C2D6F2D0E94F10720E3280F06
:100B300020931701905D90931801E0921B018D2D79
:100B40000E94F107805D80930701905D90930801FA
:100B5000E1E0809160018111E0E0E195F0E0E35B8C
:100B6000FE4F648960688DE491E00E94880380E113
:100B700091E00E943204E0916001E230A8F4E1507B
:100B8000F0E0E35BFE4F648960688DE491E00E94D1
:100B9000880380E091E00E9432040115110509F4F8
:100BA00020CF0E9400001DCFE1E0EACF61E08DE49C
:100BB00091E00E948803CE010197F1F7E1E0809176
:100BC00060018111E0E0E195F0E0E35BFE4F6489B4
:100BD0006B5F60688DE491E00E9488038CE291E095
:100BE000DACFEDE4F1E01382128284E291E09183A6
:100BF000808387E084838FEF858386E0868385E02A
:100C0000878384E0808783E0818782E08287138600
:100C1000148615861686178661E0CF010E948B0325
:100C2000ABE3B1E088E015968C9315978BE01696B0
:100C30008C931697E8E9F0E0E4911796EC931797F8
:100C4000E4E8F0E0E4911896EC93189740E85EE34E
:100C500060E070E01D964D935D936D937C9350978B
:100C600008955058BB27AA270E9449060C942107D3
:100C70000E94130738F00E941A0720F039F49F3FB2
:100C800019F426F40C9410070EF4E095E7FB0C948D
:100C90000A07E92F0E94320758F3BA176207730751
:100CA0008407950720F079F4A6F50C9454070EF408
:100CB000E0950B2EBA2FA02D0B01B90190010C016C
:100CC000CA01A0011124FF27591B99F0593F50F484
:100CD000503E68F11A16F040A22F232F342F4427DC
:100CE000585FF3CF469537952795A795F0405395D4
:100CF000C9F77EF41F16BA0B620B730B840BBAF0A4
:100D00009150A1F0FF0FBB1F661F771F881FC2F70E
:100D10000EC0BA0F621F731F841F48F48795779522
:100D20006795B795F7959E3F08F0B0CF9395880FDC
:100D300008F09927EE0F9795879508950E943A0736
:100D400088F09F5798F0B92F9927B751B0F0E1F08C
:100D5000660F771F881F991F1AF0BA95C9F714C03C
:100D6000B13091F00E945407B1E008950C945407FB
:100D7000672F782F8827B85F39F0B93FCCF3869575
:100D800077956795B395D9F73EF4909580957095D2
:100D900061957F4F8F4F9F4F0895E89409C097FB4F
:100DA0003EF490958095709561957F4F8F4F9F4F42
:100DB0009923A9F0F92F96E9BB279395F695879586
:100DC00077956795B795F111F8CFFAF4BB0F11F449
:100DD00060FF1BC06F5F7F4F8F4F9F4F16C08823F0
:100DE00011F096E911C0772321F09EE8872F762F26
:100DF00005C0662371F096E8862F70E060E02AF067
:100E00009A95660F771F881FDAF7880F9695879552
:100E100097F9089597F99F6780E870E060E008957A
:100E20009FEF80EC089500240A9416161706180602
:100E30000906089500240A941216130614060506DE
:100E40000895092E0394000C11F4882352F0BB0F6F
:100E500040F4BF2B11F460FF04C06F5F7F4F8F4FD2
:100E60009F4F089557FD9058440F551F59F05F3F0D
:100E700071F04795880F97FB991F61F09F3F79F0BC
:100E800087950895121613061406551FF2CF46953E
:100E9000F1DF08C0161617061806991FF1CF8695C0
:100EA0007105610508940895E894BB2766277727A4
:100EB000CB0197F908950E946E070C9421070E94B8
:100EC000130738F00E941A0720F0952311F00C94B4
:100ED0000A070C94100711240C9455070E9432073E
:100EE00070F3959FC1F3950F50E0551F629FF0017D
:100EF000729FBB27F00DB11D639FAA27F00DB11D96
:100F0000AA1F649F6627B00DA11D661F829F22271E
:100F1000B00DA11D621F739FB00DA11D621F839FA5
:100F2000A00D611D221F749F3327A00D611D231F7B
:100F3000849F600D211D822F762F6A2F11249F57C9
:100F400050409AF0F1F088234AF0EE0FFF1FBB1FCC
:100F5000661F771F881F91505040A9F79E3F51058B
:100F600080F00C940A070C9455075F3FE4F3983E19
:100F7000D4F3869577956795B795F795E7959F5F35
:100F8000C1F7FE2B880F911D9695879597F90895C7
:100F90000E94CD07880B990B0895990F0008550FF3
:100FA000AA0BE0E8FEEF16161706E807F907C0F0EF
:100FB00012161306E407F50798F0621B730B840BF7
:100FC000950B39F40A2661F0232B242B252B21F4D1
:100FD00008950A2609F4A140A6958FEF811D811D71
:100FE0000895991B79E004C0991F961708F0961B85
:100FF000881F7A95C9F780950895EE0FFF1F059019
:10100000F491E02D099481E090E0F8940C940808A4
:04101000F894FFCF82
:1010140052482020203D2030302E30202520200032
:1010240054656D70203D2030302E30204320200048
:10103400000000008203DA002F042E044572726F50
:02104400720038
:00000001FF
