:100000000C9462000C948A000C948A000C948A0070
:100010000C948A000C948A000C948A000C948A0038
:100020000C948A000C948A000C948A000C94C505E8
:100030000C948A000C948A000C948A000C948A0018
:100040000C947B050C948A000C9449050C942305B0
:100050000C948A000C948A000C948A000C948A00F8
:100060000C948A000C948A000000000024002700F1
:100070002A0000000000250028002B0000000000DE
:1000800023002600290004040404040404040202DA
:100090000202020203030303030301020408102007
:1000A0004080010204081020010204081020000012
:1000B0000008000201000003040700000000000027
:1000C0000000860611241FBECFEFD8E0DEBFCDBFF3
:1000D00011E0A0E0B1E0ECEDF4E102C005900D927A
:1000E000A635B107D9F722E0A6E5B1E001C01D921F
:1000F000A03BB207E1F710E0C2E6D0E004C02197D0
:10010000FE010E94610AC136D107C9F70E9460074B
:100110000C946C0A0C940000CF92DF92EF92FF9245
:10012000DC01A03282E0B8070CF03EC0B7FD06C08B
:10013000A53BB1052CF0A4EBB0E002C0A0E0B0E01C
:100140008091960228E830E06901C81AD10887FD3D
:10015000D394CC0CDD1CCC0CDD1C0D2C000CEE085B
:10016000FF088091970228E532E0281B310987FDBE
:100170003395220F331F220F331FA901330F660B54
:10018000770B9A01AB012C193D094E095F090E94BA
:100190001C0A24EB30E040E050E00E94F209C20E5D
:1001A000D31EE41EF51ED601909195029C3098F561
:1001B0008091960248E850E0481B510987FD53950D
:1001C000440F551F440F551FA417B5078CF080919D
:1001D000970228E532E0281B310987FD3395220F6D
:1001E000331F220F331FAD012A173B070CF4A9015F
:1001F00042505109440F551F2FB7F894892F90E0B2
:10020000FC01EE0FFF1F8E0F9F1FFC01EF5FFD4FE4
:10021000528341832FBFFF90EF90DF90CF900895DE
:1002200096E0899FD0011124AA5DBD4F90967C93E2
:100230006E935F9791E091969C9391979091920223
:10024000E0919302F0919402992339F0309751F0A4
:10025000811108C08091420204C0309719F05C9669
:100260008C9109940895CF92DF92EF92FF920F93B1
:100270001F93CF93DF936C017A018B01C0E0D0E034
:10028000CE15DF0589F0D8016D918D01D601ED9174
:10029000FC910190F081E02DC6010995892B11F4A4
:1002A0007E0102C02196ECCFC701DF91CF911F9153
:1002B0000F91FF90EF90DF90CF900895FC01538D48
:1002C000448D252F30E0842F90E0821B930B541730
:1002D00010F0CF96089501970895FC01918D828DBD
:1002E000981761F0828DDF01A80FB11D5D968C918A
:1002F000928D9F5F9F73928F90E008958FEF9FEF95
:100300000895FC01918D828D981731F0828DE80F50
:10031000F11D858D90E008958FEF9FEF0895FC010A
:10032000918D228D892F90E0805C9F4F821B9109D7
:100330008F739927089584E691E00E948F0121E050
:10034000892B09F420E0822F0895FC01848DDF01C0
:10035000A80FB11DA35ABF4F2C91848D90E0019638
:100360008F739927848FA689B7892C93A089B18927
:100370008C9180648C93938D848D981306C0028831
:10038000F389E02D80818F7D80830895EF92FF9225
:100390000F931F93CF93DF93EC0181E0888F9B8DA8
:1003A0008C8D981305C0E889F989808185FD24C06A
:1003B000F62E0B8D10E00F5F1F4F0F731127E02EED
:1003C0008C8DE8120CC00FB607FCFACFE889F989CA
:1003D000808185FFF5CFCE010E94A501F1CF8B8DE5
:1003E000FE01E80FF11DE35AFF4FF0820B8FEA89FF
:1003F000FB898081806207C0EE89FF896083E8897C
:10040000F98980818064808381E090E0DF91CF91E1
:100410001F910F91FF90EF900895CF93DF93EC0120
:10042000888D8823C9F0EA89FB89808185FD05C014
:10043000A889B9898C9186FD0FC00FB607FCF5CF4E
:10044000808185FFF2CFA889B9898C9185FFEDCF96
:10045000CE010E94A501E7CFDF91CF91089580E002
:1004600090E0892B29F00E949B0181110C940000DF
:100470000895833081F028F4813099F08230A1F022
:1004800008958730A9F08830B9F08430D1F4809194
:1004900080008F7D03C0809180008F7780938000E3
:1004A000089584B58F7702C084B58F7D84BD08958B
:1004B0008091B0008F7703C08091B0008F7D8093D2
:1004C000B0000895CF93DF93282F30E0F901E25573
:1004D000FF4F8491F901E656FF4FD491F901EA5795
:1004E000FF4FC491CC2391F081110E943902EC2F6F
:1004F000F0E0EE0FFF1FE458FF4FA591B491EC918F
:10050000ED2381E090E021F480E002C080E090E003
:10051000DF91CF910895862F0C9462021F93CF93A1
:10052000DF93282F30E0F901E255FF4F8491F90164
:10053000E656FF4FD491F901EA57FF4FC491CC23FF
:10054000C9F0162F81110E943902EC2FF0E0EE0F56
:10055000FF1FEE58FF4FA591B4918FB7F89411117A
:1005600005C09C91ED2FE095E92302C0EC91ED2BA5
:10057000EC938FBFDF91CF911F910895862F642F49
:100580000C948E02CF93DF9390E0FC01E656FF4F70
:100590002491FC01EA57FF4F8491882361F190E098
:1005A000880F991FFC01E859FF4FC591D491FC01B8
:1005B000EE58FF4FA591B491611109C09FB7F8940F
:1005C0008881209582238883EC912E230BC0623092
:1005D00061F49FB7F8943881822F809583238883B4
:1005E000EC912E2B2C939FBF06C08FB7F894E88117
:1005F0002E2B28838FBFDF91CF910895862F642FF4
:100600000C94C2023FB7F89480915C0190915D0117
:10061000A0915E01B0915F0126B5A89B05C02F3F58
:1006200019F00196A11DB11D3FBFBA2FA92F982F18
:100630008827820F911DA11DB11DBC01CD0142E093
:10064000660F771F881F991F4A95D1F708958F92DB
:100650009F92AF92BF92CF92DF92EF92FF920E9451
:1006600002034B015C0180EDC82E87E0D82EE12CFF
:10067000F12C0E940203DC01CB0188199909AA0917
:10068000BB09883E9340A105B10558F021E0C21A8C
:10069000D108E108F10888EE880E83E0981EA11CBD
:1006A000B11CC114D104E104F10419F7FF90EF90DB
:1006B000DF90CF90BF90AF909F908F9008952FB70D
:1006C000F894609158017091590180915A0190916C
:1006D0005B012FBF08950F931F93CF93DF93C82F14
:1006E000D62F86E0C89FF0011124EA5DFD4F11A2CC
:1006F000878D90A181309105F1F01CF4892B49F090
:1007000043C082309105A9F10397F1F560E070E0F4
:1007100034C06623C9F161E070E08C2F0E941001A3
:100720000E945F0360937E0270937F028093800239
:100730009093810229C00E945F0300917E02109174
:100740007F022091800230918102AB01BC01401BED
:10075000510B620B730B8091900290919102A0E07B
:10076000B0E084179507A607B70718F462E070E0B9
:1007700004C0D11109C063E070E08C2FDF91CF91EC
:100780001F910F910C941001DF91CF911F910F9148
:100790000895CF93DF93EC0160E08E810E948E027A
:1007A00061E08E810E948E0260E08E810E948E0246
:1007B0008BE891E00197F1F7DF91CF910895CF9207
:1007C000DF92EF92FF920F931F93CF93DF937C0101
:1007D0006C0187E0C80ED11CC0E0D0E0062F10E00D
:1007E000B8010C2E02C0759567950A94E2F7617006
:1007F000F60181916F010E948E022196C430D105CD
:1008000079F7C701DF91CF911F910F91FF90EF9082
:10081000DF90CF900C94C903CF92DF92EF92FF92BA
:100820000F931F93CF93DF93EC01F62E642F8C81EF
:100830000E948E028D818F3F19F060E00E948E022F
:100840008F850F2D10E084FF25C06E0187E0C80E54
:10085000D11CE12CF12CB8010E2C02C075956795C6
:100860000A94E2F76170F60181916F010E948E0295
:10087000FFEFEF1AFF0A88E0E816F10461F7CE01F6
:10088000DF91CF911F910F91FF90EF90DF90CF906C
:100890000C94C903B80184E0759567958A95E1F7D2
:1008A000CE010E94DF036F2DCE01DF91CF911F910A
:1008B0000F91FF90EF90DF90CF900C94DF0341E019
:1008C0000E940C0481E090E0089540E00C940C0438
:1008D000EF92FF920F931F93CF93DF93EC0162305F
:1008E00018F08F8588608F876B8B1C8A80E48D8BD6
:1008F00080E18E8B80E58F8B61E08C810E94C2024B
:100900008D818F3F19F061E00E94C20261E08E810B
:100910000E94C2027E0187E0E80EF11C00E010E0B8
:100920008F8584FD03C084E090E002C088E090E001
:10093000081719074CF461E0F70181917F010E94CB
:10094000C2020F5F1F4FECCF8BE39DE00197F1F7E1
:1009500060E08C810E948E0260E08E810E948E0297
:100960008D818F3F19F060E00E948E026F8564FDDB
:100970001DC063E0CE010E94DF030BE416E4C80152
:100980000197F1F763E0CE010E94DF03C8010197F0
:10099000F1F763E0CE010E94DF0383E592E0019767
:1009A000F1F762E0CE010E94DF0316C06062CE0163
:1009B0000E9465048BE496E40197F1F76F8560620D
:1009C000CE010E94650483E592E00197F1F76F85FF
:1009D0006062CE010E9465046F856062CE010E9454
:1009E000650484E0888B6CE0CE010E94650461E0C0
:1009F000CE010E9465048BE39FE10197F1F782E04D
:100A0000898B66E0CE01DF91CF911F910F91FF900E
:100A1000EF900C946504089580E090E008950097AD
:100A200069F0FC0101900020E9F73197AF01481B04
:100A3000590BBC0188E992E00C94330180E090E00E
:100A400008950E94670A1F920F920FB60F92112409
:100A50002F933F934F935F936F937F938F939F93C6
:100A6000AF93BF93EF93FF9384E691E00E94A501BB
:100A7000FF91EF91BF91AF919F918F917F916F9176
:100A80005F914F913F912F910F900FBE0F901F904C
:100A900018951F920F920FB60F9211242F938F93D8
:100AA0009F93EF93FF93E0917401F0917501808122
:100AB000E0917A01F0917B0182FD12C090818091DA
:100AC0007D018F5F8F7320917E01821751F0E0913D
:100AD0007D01F0E0EC59FE4F958F80937D0101C0C0
:100AE0008081FF91EF919F918F912F910F900FBE79
:100AF0000F901F9018951F920F920FB60F9211240E
:100B00002F933F938F939F93AF93BF9380915801FF
:100B100090915901A0915A01B0915B013091570118
:100B200023E0230F2D3720F40196A11DB11D05C030
:100B300026E8230F0296A11DB11D20935701809333
:100B4000580190935901A0935A01B0935B01809191
:100B50005C0190915D01A0915E01B0915F010196F1
:100B6000A11DB11D80935C0190935D01A0935E0176
:100B7000B0935F01BF91AF919F918F913F912F9162
:100B80000F900FBE0F901F9018951F920F920FB6E7
:100B90000F9211242F933F934F935F936F937F9303
:100BA0008F939F93AF93BF93EF93FF9380915601E1
:100BB00087FF05C010928500109284001BC0209111
:100BC0005601022E000C330B8091250290E028176D
:100BD000390784F480915601082E000C990BFC0112
:100BE000EE0FFF1F8E0F9F1FFC01EF5FFD4F8081F7
:100BF00086FD15C0809156018F5F8093560120912C
:100C00005601022E000C330B8091250290E028172C
:100C10003907C4F4809156018C3064F113C080917F
:100C20005601082E000C990BFC01EE0FFF1F8E0FD2
:100C30009F1FFC01EF5FFD4F808160E08F730E947A
:100C40008E02D8CF809184009091850004968034E4
:100C50009C4918F480E49CE905C08091840090913F
:100C60008500049690938900809388008FEF80938D
:100C700056013BC02091840030918500809156013F
:100C8000082E000C990BFC01EE0FFF1F8E0F9F1F0B
:100C9000FC01EF5FFD4F81819281820F931F909342
:100CA00089008093880080915601082E000C990BD2
:100CB000FC01EE0FFF1F8E0F9F1FFC01EF5FFD4F2A
:100CC000808186FF12C080915601082E000C990B7E
:100CD000FC01EE0FFF1F8E0F9F1FFC01EF5FFD4F0A
:100CE000808161E08F730E948E02FF91EF91BF912E
:100CF000AF919F918F917F916F915F914F913F91B4
:100D00002F910F900FBE0F901F901895CF931092B8
:100D100067011092660188EE93E0A0E0B0E0809356
:100D2000680190936901A0936A01B0936B0184E01C
:100D300091E0909365018093640185EC90E090933D
:100D400071018093700184EC90E090937301809323
:100D5000720180EC90E0909375018093740181ECB6
:100D600090E0909377018093760182EC90E09093ED
:100D700079018093780186EC90E090937B018093D9
:100D80007A0110927D0110927E0110927F011092E3
:100D9000800110929B0210929A0280E291E090935F
:100DA0009902809398028DE080939C02CFEFC093CC
:100DB0009D028CE080939E028BE080939F028AE0EC
:100DC0008093A00289E08093A10288E08093A20230
:100DD0001092A3021092A4021092A5021092A602F1
:100DE0001092A70261E088E992E00E946804809175
:100DF00025028C30A0F491E0980F90932502809307
:100E0000950290E0FC01EE0FFF1F8E0F9F1FFC016B
:100E1000EF5FFD4F88EB9BE09283818302C0C0931C
:100E200095021092280210922C0210922B0210921E
:100E30002D0286E191E0909327028093260280E0C4
:100E400090E0FC01EA5DFD4F148E10A2178E11A2F6
:100E500006968C339105A9F78BE291E09093890275
:100E60008093880288E291E090938B0280938A02BB
:100E700084E080938C0283E080938D028FE291E086
:100E800090938702809386028AE090E090938F028D
:100E900080938E0284EF91E0909391028093900270
:100EA0001092940210929302109282021092830286
:100EB000109284021092850210929202CF910895AE
:100EC000789484B5826084BD84B5816084BD85B525
:100ED000826085BD85B5816085BD80916E00816031
:100EE00080936E00109281008091810082608093D7
:100EF00081008091810081608093810080918000D9
:100F00008160809380008091B10084608093B10003
:100F10008091B00081608093B00080917A008460FD
:100F200080937A0080917A00826080937A00809129
:100F30007A00816080937A0080917A008068809343
:100F40007A001092C10062E088E992E00E94680491
:100F5000E0917401F091750182E08083E09170016D
:100F6000F09171011082E0917201F09173018FECA8
:100F7000808310927C01E0917801F091790186E004
:100F80008083E0917601F091770180818061808398
:100F9000E0917601F0917701808188608083E09113
:100FA0007601F0917701808180688083E0917601FD
:100FB000F091770180818F7D8083809195028C30C4
:100FC00008F050C061E080E00E94C202809195026A
:100FD000E82FF0E09F01220F331FE20FF31FEF5FB6
:100FE000FD4F9081907C9083109296021092970210
:100FF0006CE00E94550A2CE0829FB001112440E071
:1010000050E09A01260F371FF901EE0FFF1F2E0F38
:101010003F1FF901EF5FFD4F908196FD16C04F5FB6
:101020005F4F4C30510569F781110FC0109280005D
:1010300082E0809381001092850010928400B19A22
:1010400080916F00826080936F00E0919502F0E0E4
:10105000CF01880F991FE80FF91FEF5FFD4F8081C7
:10106000806480838BE391E00E940F053BE3C32EF5
:101070003FE1D32E412C512C32014394E1E0809189
:10108000AB028111E0E0E195F0E0E856FD4F6489A4
:101090006A5F606888E992E00E94650481E080935D
:1010A00092020E945F0300918202109183022091BC
:1010B000840230918502AB01BC01401B510B620BD5
:1010C000730B80918E0290918F02A0E0B0E08417A4
:1010D0009507A607B70708F008C1C0E080918C0209
:1010E000C81760F4E0918802F0918902EC0FF11DBD
:1010F00062E080810E94C202CF5FF0CF912C80918C
:101100008D02981608F05FC0092D10E0E0918A0268
:10111000F0918B02E00FF11F61E080810E94C2021A
:10112000E0918A02F0918B02E00FF11F60E0808174
:101130000E948E02D301C201092C04C0880F991F9E
:10114000AA1FBB1F0A94D2F75C017C01E094F094C3
:10115000812C80918C028816F8F4C82DD0E0E091A3
:101160008802F0918902EC0FFD1F80810E946202CB
:101170002496CC0FDD1FCA5DDD4F892B29F48881B1
:1011800099818A299B2904C0888199818E219F2178
:10119000998388838394DDCFE0918A02F0918B025A
:1011A000E00FF11F61E080810E948E0280918A022F
:1011B00090918B02FC01E00FF11F60E080810E94A2
:1011C000C20293949CCFE2E4F2E08FEF9FEF238181
:1011D0003481232B21F410829283818315823696E9
:1011E00022E0EE37F20799F710E006E080918C02DA
:1011F000181708F052C0F12CC12FD0E0CC0FDD1F22
:10120000C25DDD4F20918D02F21608F044C0688166
:1012100079810F2C02C0769567950A94E2F7617088
:101220007727129F900111242F0D311DE091860226
:10123000F0918702E20FF31FA081E6E2F2E080E086
:10124000458D568D4217530711F461701AC08F5F98
:1012500036968A30A9F7672BE1F0E2E4F2E080E00D
:1012600090E04081411110C0089FF001099FF00DEE
:101270001124EA5DFD4FA48F368F258F10A2178EA3
:1012800061E00E946B0305C0019636968A30910595
:1012900041F7F394B7CF1F5FA9CF80E090E0C0E0A3
:1012A000FC01EA5DFD4F21A12111C1E006968C33BE
:1012B0009105B1F70E945F036093820270938302ED
:1012C0008093840290938502CC2379F08091470229
:1012D000882359F08091450290914602019729F4A4
:1012E000C0914202CA3221F40AC010929202C0E0B8
:1012F00080ED8C0F8A3018F0C33209F06CC0E1E049
:101300008091AB028111E0E0E195F0E0E856FD4FFD
:10131000648980916201680F606888E992E00E94A8
:101320006504E0919802F09199020190F081E02D1E
:101330006C2F88E992E00995809162019091630198
:1013400001969093630180936201CC2309F447C016
:10135000C13371F0C93309F042C088E491E00E94C2
:101360000F058AE590E090936101809360011AC0B7
:1013700082E491E00E940F051092610110926001D9
:10138000C0916001D0916101C53BD10544F5CE010A
:101390000E948C000E9427032196D0936101C09384
:1013A0006001EECFC0916001D0916101D7FD17C0FF
:1013B000CE010E948C000E94270361E088E992E040
:1013C0000E946504C6010197F1F72197D09361014E
:1013D000C0936001E7CF80E591E00E940F050E9475
:1013E0002F024CCE052E97FB1EF400940E94090A92
:1013F00057FD07D00E94240A07FC03D04EF40C943A
:10140000090A50954095309521953F4F4F4F5F4FBA
:10141000089590958095709561957F4F8F4F9F4F60
:1014200008950E94460AA59F900DB49F900DA49F19
:10143000800D911D11240895B7FF0C94110A0E948C
:10144000110A821B930B0895A1E21A2EAA1BBB1B43
:10145000FD010DC0AA1FBB1FEE1FFF1FA217B30780
:10146000E407F50720F0A21BB30BE40BF50B661F96
:10147000771F881F991F1A9469F76095709580955A
:1014800090959B01AC01BD01CF010895A29FB001D1
:10149000B39FC001A39F700D811D1124911DB29FA8
:1014A000700D811D1124911D0895991B79E004C0D0
:1014B000991F961708F0961B881F7A95C9F7809593
:1014C0000895EE0FFF1F0590F491E02D099481E03F
:0C14D00090E0F8940C946C0AF894FFCFA4
:1014DC0000000000C60133015E010D028F016D0199
:1014EC00810100000000FE02BE028B020000000021
:1014FC005F0433010C050B050706050403020131DB
:10150C0032333435363738392A3023504153533A35
:10151C00200042454E415200444954555455500008
:06152C0053414C41480050
:00000001FF
