:100000000C9462000C948A000C948A000C948A0070
:100010000C948A000C948A000C948A000C948A0038
:100020000C948A000C948A000C948A000C948A0028
:100030000C948A000C948A000C948A000C948A0018
:100040000C948C030C948A000C948A000C948A0003
:100050000C948A000C948A000C948A000C948A00F8
:100060000C948A000C948A000000000024002700F1
:100070002A0000000000250028002B0000000000DE
:1000800023002600290004040404040404040202DA
:100090000202020203030303030301020408102007
:1000A0004080010204081020010204081020000012
:1000B0000008000201000003040700000000000027
:1000C0000000CB0511241FBECFEFD8E0DEBFCDBFAF
:1000D00011E0A0E0B1E0E6EAFCE002C005900D927C
:1000E000A235B107D9F721E0A2E5B1E001C01D9228
:1000F000A23EB207E1F710E0C2E6D0E004C02197CB
:10010000FE010E944606C136D107C9F70E94D603F8
:100110000C9451060C94000096E0899FD0011124A4
:10012000A55ABE4F90967C936E935F9791E09196FF
:100130009C9391979091C701E091C801F091C901FA
:10014000992339F0309751F0811108C080917701DF
:1001500004C0309719F05C968C9109940895CF9261
:10016000DF92EF92FF920F931F93CF93DF936C0177
:100170007A018B01C0E0D0E0CE15DF0589F0D8010F
:100180006D918D01D601ED91FC910190F081E02DF2
:10019000C6010995892B11F47E0102C02196ECCF8E
:1001A000C701DF91CF911F910F91FF90EF90DF90EA
:1001B000CF900895833081F028F4813099F0823017
:1001C000A1F008958730A9F08830B9F08430D1F4D7
:1001D000809180008F7D03C0809180008F77809315
:1001E0008000089584B58F7702C084B58F7D84BD6B
:1001F00008958091B0008F7703C08091B0008F7D0B
:100200008093B0000895CF93DF93282F30E0F90159
:10021000E255FF4F8491F901E656FF4FD491F90161
:10022000EA57FF4FC491CC2391F081110E94DA006C
:10023000EC2FF0E0EE0FFF1FE458FF4FA591B491B3
:10024000EC91ED2381E090E021F480E002C080E0B9
:1002500090E0DF91CF910895862F0C9403011F93B6
:10026000CF93DF93282F30E0F901E255FF4F8491BF
:10027000F901E656FF4FD491F901EA57FF4FC491B7
:10028000CC23C9F0162F81110E94DA00EC2FF0E088
:10029000EE0FFF1FEE58FF4FA591B4918FB7F89462
:1002A000111105C09C91ED2FE095E92302C0EC915E
:1002B000ED2BEC938FBFDF91CF911F910895862F87
:1002C000642F0C942F01CF93DF9390E0FC01E6564E
:1002D000FF4F2491FC01EA57FF4F8491882361F17D
:1002E00090E0880F991FFC01E859FF4FC591D49108
:1002F000FC01EE58FF4FA591B491611109C09FB761
:10030000F8948881209582238883EC912E230BC05A
:10031000623061F49FB7F8943881822F80958323EF
:100320008883EC912E2B2C939FBF06C08FB7F89437
:10033000E8812E2B28838FBFDF91CF910895862FE0
:10034000642F0C9463013FB7F8948091570190910A
:100350005801A0915901B0915A0126B5A89B05C03A
:100360002F3F19F00196A11DB11D3FBFBA2FA92F34
:10037000982F8827820F911DA11DB11DBC01CD01B1
:1003800042E0660F771F881F991F4A95D1F708959D
:100390002FB7F894609153017091540180915501E9
:1003A000909156012FBF08950F931F93CF93DF9322
:1003B000C82FD62F86E0C89FF0011124E55AFE4FC2
:1003C00011A2878D90A181309105F1F01CF4892B49
:1003D00049F043C082309105A9F10397F1F560E03F
:1003E00070E034C06623C9F161E070E08C2F0E9498
:1003F0008C000E94C8016093B3017093B401809394
:10040000B5019093B60129C00E94C8010091B301C3
:100410001091B4012091B5013091B601AB01BC013E
:10042000401B510B620B730B8091C5019091C6016B
:10043000A0E0B0E084179507A607B70718F462E0BC
:1004400070E004C0D11109C063E070E08C2FDF912F
:10045000CF911F910F910C948C00DF91CF911F9140
:100460000F910895CF93DF93EC0160E08E810E949D
:100470002F0161E08E810E942F0160E08E810E9439
:100480002F018BE891E00197F1F7DF91CF9108956B
:10049000CF92DF92EF92FF920F931F93CF93DF9350
:1004A0007C016C0187E0C80ED11CC0E0D0E0062FB3
:1004B00010E0B8010C2E02C0759567950A94E2F71A
:1004C0006170F60181916F010E942F012196C43065
:1004D000D10579F7C701DF91CF911F910F91FF905F
:1004E000EF90DF90CF900C943202CF92DF92EF9298
:1004F000FF920F931F93CF93DF93EC01F62E642F9F
:100500008C810E942F018D818F3F19F060E00E9445
:100510002F018F850F2D10E084FF25C06E0187E02D
:10052000C80ED11CE12CF12CB8010E2C02C075951F
:1005300067950A94E2F76170F60181916F010E945C
:100540002F01FFEFEF1AFF0A88E0E816F10461F7C8
:10055000CE01DF91CF911F910F91FF90EF90DF902F
:10056000CF900C943202B80184E0759567958A9516
:10057000E1F7CE010E9448026F2DCE01DF91CF91AD
:100580001F910F91FF90EF90DF90CF900C94480255
:1005900041E00E94750281E090E0089540E00C94F3
:1005A0007502EF92FF920F931F93CF93DF93EC01AD
:1005B000623018F08F8588608F876B8B1C8A80E48F
:1005C0008D8B80E18E8B80E58F8B61E08C810E942A
:1005D00063018D818F3F19F061E00E94630161E04A
:1005E0008E810E9463017E0187E0E80EF11C00E02D
:1005F00010E08F8584FD03C084E090E002C088E0B5
:1006000090E0081719074CF461E0F70181917F0130
:100610000E9463010F5F1F4FECCF8BE39DE00197BA
:10062000F1F760E08C810E942F0160E08E810E94D2
:100630002F018D818F3F19F060E00E942F016F859F
:1006400064FD1DC063E0CE010E9448020BE416E485
:10065000C8010197F1F763E0CE010E944802C8018A
:100660000197F1F763E0CE010E94480283E592E032
:100670000197F1F762E0CE010E94480216C0606265
:10068000CE010E94CE028BE496E40197F1F76F85CC
:100690006062CE010E94CE0283E592E00197F1F7FD
:1006A0006F856062CE010E94CE026F856062CE01CE
:1006B0000E94CE0284E0888B6CE0CE010E94CE02C4
:1006C00061E0CE010E94CE028BE39FE10197F1F73A
:1006D00082E0898B66E0CE01DF91CF911F910F916F
:1006E000FF90EF900C94CE02089580E090E0089582
:1006F000009769F0FC0101900020E9F73197AF0104
:10070000481B590BBC018AEC91E00C94AF0080E0CF
:1007100090E008950E944C061F920F920FB60F9220
:1007200011242F933F938F939F93AF93BF93809107
:10073000530190915401A0915501B091560130910F
:10074000520123E0230F2D3720F40196A11DB11D86
:1007500005C026E8230F0296A11DB11D209352016A
:100760008093530190935401A0935501B093560187
:100770008091570190915801A0915901B0915A016F
:100780000196A11DB11D8093570190935801A0932C
:100790005901B0935A01BF91AF919F918F913F91B1
:1007A0002F910F900FBE0F901F901895789484B5DD
:1007B000826084BD84B5816084BD85B5826085BD5D
:1007C00085B5816085BD80916E00816080936E00EB
:1007D00010928100809181008260809381008091DD
:1007E000810081608093810080918000816080938E
:1007F00080008091B10084608093B1008091B0004E
:1008000081608093B00080917A00846080937A0048
:1008100080917A00826080937A0080917A00816072
:1008200080937A0080917A00806880937A00109299
:10083000C10062E08AEC91E00E94D102E1E0809187
:10084000DD018111E0E0E195F0E0E653FE4F6489BF
:1008500060688AEC91E00E94CE0289E291E00E94F9
:1008600078030E94A3014B015C0150EDC52E57E0B7
:10087000D52EE12CF12C0E94A301DC01CB018819BB
:100880009909AA09BB09883E9340A105B10558F012
:1008900021E0C21AD108E108F10888EE880E83E051
:1008A000981EA11CB11CC114D104E104F10419F774
:1008B00061E08AEC91E00E94CE028BE39FE1019718
:1008C000F1F7412C512C32014394CC24CA94DC2CF6
:1008D000E1E08091DD018111E0E0E195F0E0E65397
:1008E000FE4F648960688AEC91E00E94CE0288E342
:1008F00091E00E94780381E08093C7010E94C801C3
:100900000091B7011091B8012091B9013091BA015D
:10091000AB01BC01401B510B620B730B8091C301F7
:100920009091C401A0E0B0E084179507A607B7072F
:1009300008F006C1C0E08091C101C81760F4E091E1
:10094000BD01F091BE01EC0FF11D62E080810E94BB
:100950006301CF5FF0CF912C8091C201981608F00F
:100960005FC0092D10E0E091BF01F091C001E00FE0
:10097000F11F61E080810E946301E091BF01F0916D
:10098000C001E00FF11F60E080810E942F01D301C0
:10099000C201092C04C0880F991FAA1FBB1F0A940B
:1009A000D2F75C017C01E094F094812C8091C1012C
:1009B0008816F8F4C82DD0E0E091BD01F091BE0199
:1009C000EC0FFD1F80810E9403012496CC0FDD1FD8
:1009D000C55ADE4F892B29F4888199818A299B2960
:1009E00004C0888199818E219F2199838883839473
:1009F000DDCFE091BF01F091C001E00FF11F61E098
:100A000080810E942F018091BF019091C001FC0163
:100A1000E00FF11F60E080810E94630193949CCFFE
:100A2000E7E7F1E083819481892B21F41082D2825F
:100A3000C1821582369681E0E33BF80799F710E012
:100A400006E08091C101181708F052C0F12CC12FA7
:100A5000D0E0CC0FDD1FCD59DE4F2091C201F21640
:100A600008F044C0688179810F2C02C076956795A3
:100A70000A94E2F761707727129F900111242F0DDD
:100A8000311DE091BB01F091BC01E20FF31FA08189
:100A9000EBE5F1E080E0458D568D4217530711F4E8
:100AA00061701AC08F5F36968A30A9F7672BE1F024
:100AB000E7E7F1E080E090E04081411110C0089F3D
:100AC000F001099FF00D1124E55AFE4FA48F368FD7
:100AD000258F10A2178E61E00E94D40105C00196F7
:100AE00036968A30910541F7F394B7CF1F5FA9CFAF
:100AF00080E090E0C0E0FC01E55AFE4F21A1211109
:100B0000C1E006968C339105B1F70E94C80160934D
:100B1000B7017093B8018093B9019093BA01CC23C7
:100B200079F080917C01882359F080917A0190912D
:100B30007B01019729F4C0917701C11104C023C042
:100B40001092C70120C0E091DD01E23010F4E150C5
:100B500001C0E1E0F0E0E653FE4F8489682F606851
:100B60008AEC91E00E94CE02E091CA01F091CB01A3
:100B70000190F081E02D6C2F8AEC91E0099586E4DC
:100B800091E00E94780380E090E0892B09F4A0CEE8
:100B90000E9400009DCE10925D01109261011092A2
:100BA00060011092620183E291E090935C01809376
:100BB0005B0180E090E0FC01E55AFE4F148E10A22C
:100BC000178E11A206968C339105A9F783E091E068
:100BD0009093BE018093BD0180E091E09093C001AD
:100BE0008093BF0184E08093C10183E08093C201C0
:100BF00087E091E09093BC018093BB018AE090E094
:100C00009093C4018093C30184EF91E09093C60157
:100C10008093C5011092C9011092C8011092B701CA
:100C20001092B8011092B9011092BA011092C70146
:100C30001092CD011092CC0187E191E09093CB010D
:100C40008093CA018DE08093CE018FEF8093CF0116
:100C50008CE08093D0018BE08093D1018AE0809377
:100C6000D20189E08093D30188E08093D40110926F
:100C7000D5011092D6011092D7011092D80110928E
:100C8000D90161E08AEC91E00C94D102EE0FFF1FD4
:100C90000590F491E02D099481E090E0F8940C9493
:060CA0005106F894FFCF9D
:100CA6000506070403020131323334353637383945
:100CB6002A302300000000C802AF00750374030049
:100CC6000000009F015F012C0141726475696E6F1F
:100CD600204B657970616400507265737320616E94
:100CE60079206B657900206973207072657373656E
:020CF600640098
:00000001FF
