:100000000C9462000C948A000C948A000C948A0070
:100010000C948A000C948A000C948A000C948A0038
:100020000C948A000C948A000C948A000C948A0028
:100030000C948A000C948A000C948A000C948A0018
:100040000C9488040C948A000C9456040C9430048C
:100050000C948A000C948A000C948A000C948A00F8
:100060000C948A000C948A000000000024002700F1
:100070002A0000000000250028002B0000000000DE
:1000800023002600290004040404040404040202DA
:100090000202020203030303030301020408102007
:1000A0004080010204081020010204081020000012
:1000B0000008000201000003040700000000000027
:1000C0000000D20411241FBECFEFD8E0DEBFCDBFA9
:1000D00011E0A0E0B1E0E6E0FFE002C005900D9283
:1000E000A034B107D9F722E0A0E4B1E001C01D922D
:1000F000A137B207E1F710E0C2E6D0E004C02197D3
:10010000FE010E947607C136D107C9F70E948F050C
:100110000C9481070C94000096E0899FD001112473
:10012000A651BE4F90967C936E935F9791E0919607
:100130009C93919790915602E0915702F09158024A
:10014000992339F0309751F0811108C0809106024F
:1001500004C0309719F05C968C9109940895CF9261
:10016000DF92EF92FF920F931F93CF93DF936C0177
:100170007A018B01C0E0D0E0CE15DF0589F0D8010F
:100180006D918D01D601ED91FC910190F081E02DF2
:10019000C6010995892B11F47E0102C02196ECCF8E
:1001A000C701DF91CF911F910F91FF90EF90DF90EA
:1001B000CF900895FC01538D448D252F30E0842F7E
:1001C00090E0821B930B541710F0CF96089501977F
:1001D0000895FC01918D828D981761F0828DDF0169
:1001E000A80FB11D5D968C91928D9F5F9F73928F2A
:1001F00090E008958FEF9FEF0895FC01918D828D1F
:10020000981731F0828DE80FF11D858D90E00895EB
:100210008FEF9FEF0895FC01918D228D892F90E043
:10022000805C9F4F821B91098F73992708958DE4FD
:1002300091E00E940B0121E0892B09F420E0822F3C
:100240000895FC01848DDF01A80FB11DA35ABF4F93
:100250002C91848D90E001968F739927848FA689C5
:10026000B7892C93A089B1898C9180648C93938DEC
:10027000848D981306C00288F389E02D80818F7DDC
:1002800080830895EF92FF920F931F93CF93DF9394
:10029000EC0181E0888F9B8D8C8D981305C0E889D7
:1002A000F989808185FD24C0F62E0B8D10E00F5F4B
:1002B0001F4F0F731127E02E8C8DE8120CC00FB664
:1002C00007FCFACFE889F989808185FFF5CFCE0157
:1002D0000E942101F1CF8B8DFE01E80FF11DE35A41
:1002E000FF4FF0820B8FEA89FB898081806207C013
:1002F000EE89FF896083E889F98980818064808341
:1003000081E090E0DF91CF911F910F91FF90EF90EE
:100310000895CF93DF93EC01888D8823C9F0EA8993
:10032000FB89808185FD05C0A889B9898C9186FDEE
:100330000FC00FB607FCF5CF808185FFF2CFA889EB
:10034000B9898C9185FFEDCFCE010E942101E7CFC5
:10035000DF91CF91089580E090E0892B29F00E94F1
:10036000170181110C9400000895833081F028F466
:10037000813099F08230A1F008958730A9F088305B
:10038000B9F08430D1F4809180008F7D03C08091DA
:1003900080008F7780938000089584B58F7702C0A6
:1003A00084B58F7D84BD08958091B0008F7703C0A0
:1003B0008091B0008F7D8093B0000895CF93DF933C
:1003C000282F30E0F901E255FF4F8491F901E656FC
:1003D000FF4FD491F901EA57FF4FC491CC2391F01C
:1003E00081110E94B501EC2FF0E0EE0FFF1FE458E1
:1003F000FF4FA591B491EC91ED2381E090E021F4C1
:1004000080E002C080E090E0DF91CF910895862FD8
:100410000C94DE011F93CF93DF93282F30E0F90176
:10042000E255FF4F8491F901E656FF4FD491F9014F
:10043000EA57FF4FC491CC23C9F0162F81110E94B7
:10044000B501EC2FF0E0EE0FFF1FEE58FF4FA59126
:10045000B4918FB7F894111105C09C91ED2FE095E0
:10046000E92302C0EC91ED2BEC938FBFDF91CF918C
:100470001F910895862F642F0C940A02CF93DF9367
:1004800090E0FC01E656FF4F2491FC01EA57FF4F34
:100490008491882361F190E0880F991FFC01E8594D
:1004A000FF4FC591D491FC01EE58FF4FA591B49137
:1004B000611109C09FB7F8948881209582238883B1
:1004C000EC912E230BC0623061F49FB7F894388111
:1004D000822F809583238883EC912E2B2C939FBFB2
:1004E00006C08FB7F894E8812E2B28838FBFDF9149
:1004F000CF910895862F642F0C943E022FB7F89465
:1005000060914501709146018091470190914801A9
:100510002FBF08950F931F93CF93DF93C82FD62F2C
:1005200086E0C89FF0011124E651FE4F11A2878D8D
:1005300090A181309105F1F01CF4892B49F043C062
:1005400082309105A9F10397F1F560E070E034C0C5
:100550006623C9F161E070E08C2F0E948C000E943C
:100560007E02609342027093430280934402909310
:10057000450229C00E947E0200914202109143026E
:100580002091440230914502AB01BC01401B510B4C
:10059000620B730B8091540290915502A0E0B0E081
:1005A00084179507A607B70718F462E070E004C047
:1005B000D11109C063E070E08C2FDF91CF911F91C2
:1005C0000F910C948C00DF91CF911F910F910895A2
:1005D000CF93DF93EC0160E08E810E940A0261E01C
:1005E0008E810E940A0260E08E810E940A028BE8DE
:1005F00091E00197F1F7DF91CF910895CF92DF92CB
:10060000EF92FF920F931F93CF93DF937C016C01C6
:1006100087E0C80ED11CC0E0D0E0062F10E0B80182
:100620000C2E02C0759567950A94E2F76170F60189
:1006300081916F010E940A022196C430D10579F799
:10064000C701DF91CF911F910F91FF90EF90DF9045
:10065000CF900C94E802CF92DF92EF92FF920F932B
:100660001F93CF93DF93EC01F62E642F8C810E94B1
:100670000A028D818F3F19F060E00E940A028F8587
:100680000F2D10E084FF25C06E0187E0C80ED11C3D
:10069000E12CF12CB8010E2C02C0759567950A94D7
:1006A000E2F76170F60181916F010E940A02FFEF8B
:1006B000EF1AFF0A88E0E816F10461F7CE01DF9136
:1006C000CF911F910F91FF90EF90DF90CF900C94FE
:1006D000E802B80184E0759567958A95E1F7CE0147
:1006E0000E94FE026F2DCE01DF91CF911F910F91DD
:1006F000FF90EF90DF90CF900C94FE0241E00E94BB
:100700002B0381E090E0089540E00C942B03EF92DE
:10071000FF920F931F93CF93DF93EC01623018F099
:100720008F8588608F876B8B1C8A80E48D8B80E13E
:100730008E8B80E58F8B61E08C810E943E028D81E3
:100740008F3F19F061E00E943E0261E08E810E94BD
:100750003E027E0187E0E80EF11C00E010E08F858C
:1007600084FD03C084E090E002C088E090E00817B8
:1007700019074CF461E0F70181917F010E943E026C
:100780000F5F1F4FECCF8BE39DE00197F1F760E027
:100790008C810E940A0260E08E810E940A028D8193
:1007A0008F3F19F060E00E940A026F8564FD1DC052
:1007B00063E0CE010E94FE020BE416E4C80101973B
:1007C000F1F763E0CE010E94FE02C8010197F1F744
:1007D00063E0CE010E94FE0283E592E00197F1F70B
:1007E00062E0CE010E94FE0216C06062CE010E944D
:1007F00084038BE496E40197F1F76F856062CE0184
:100800000E94840383E592E00197F1F76F856062AF
:10081000CE010E9484036F856062CE010E94840332
:1008200084E0888B6CE0CE010E94840361E0CE01FD
:100830000E9484038BE39FE10197F1F782E0898BAB
:1008400066E0CE01DF91CF911F910F91FF90EF9065
:100850000C948403089580E090E008950E947C0742
:100860001F920F920FB60F9211242F933F934F9325
:100870005F936F937F938F939F93AF93BF93EF9308
:10088000FF938DE491E00E942101FF91EF91BF91D0
:10089000AF919F918F917F916F915F914F913F9118
:1008A0002F910F900FBE0F901F9018951F920F92CF
:1008B0000FB60F9211242F938F939F93EF93FF9373
:1008C000E0915D01F0915E018081E0916301F09122
:1008D000640182FD12C09081809166018F5F8F73E9
:1008E00020916701821751F0E0916601F0E0E35B2F
:1008F000FE4F958F8093660101C08081FF91EF913B
:100900009F918F912F910F900FBE0F901F90189570
:100910001F920F920FB60F9211242F933F938F9334
:100920009F93AF93BF938091450190914601A09111
:100930004701B09148013091440123E0230F2D3746
:1009400020F40196A11DB11D05C026E8230F0296D3
:10095000A11DB11D20934401809345019093460150
:10096000A0934701B09348018091400190914101CB
:10097000A0914201B09143010196A11DB11D809348
:10098000400190934101A0934201B0934301BF9174
:10099000AF919F918F913F912F910F900FBE0F902C
:1009A0001F9018951092500110924F0188EE93E01D
:1009B000A0E0B0E08093510190935201A0935301C5
:1009C000B09354018CE191E090934E0180934D01DE
:1009D00085EC90E090935A018093590184EC90E06B
:1009E00090935C0180935B0180EC90E090935E01BA
:1009F00080935D0181EC90E09093600180935F01B2
:100A000082EC90E0909362018093610186EC90E02B
:100A100090936401809363011092660110926701C4
:100A2000109268011092690110925C0210925B02B0
:100A300088E391E090935A02809359028DE080936D
:100A40005D028FEF80935E028CE080935F028BE00B
:100A5000809360028AE08093610289E08093620261
:100A600088E08093630210926402109265021092F3
:100A70006602109267021092680261E089E592E0D6
:100A80000E9487031092EC011092F0011092EF0186
:100A90001092F1018EE291E09093EB018093EA01D4
:100AA00080E090E0FC01E651FE4F148E10A2178EFC
:100AB00011A206968C339105A9F784E091E09093FA
:100AC0004D0280934C0280E091E090934F0280931E
:100AD0004E0284E0809350028093510288E091E0BE
:100AE00090934B0280934A028AE090E090935302E5
:100AF0008093520284EF91E09093550280935402C8
:100B00001092580210925702109246021092470219
:100B10001092480210924902109256020895789459
:100B200084B5826084BD84B5816084BD85B58260F2
:100B300085BD85B5816085BD80916E0081608093A3
:100B40006E0010928100809181008260809381000C
:100B5000809181008160809381008091800081601C
:100B6000809380008091B10084608093B100809177
:100B7000B00081608093B00080917A00846080939F
:100B80007A0080917A00826080937A0080917A0066
:100B9000816080937A0080917A00806880937A00E7
:100BA0001092C10062E089E592E00E948703E09123
:100BB0005D01F0915E0182E08083E0915901F09146
:100BC0005A011082E0915B01F0915C018FEC80830F
:100BD00010926501E0916101F091620186E08083ED
:100BE000E0915F01F0916001808180618083E091FC
:100BF0005F01F0916001808188608083E0915F01F6
:100C0000F0916001808180688083E0915F01F091C4
:100C1000600180818F7D8083412C512C320143946F
:100C2000CC24CA94DC2C81E0809356020E947E0280
:100C300000914602109147022091480230914902EA
:100C4000AB01BC01401B510B620B730B8091520234
:100C500090915302A0E0B0E084179507A607B7076C
:100C600008F004C1C0E080915002C81760F4E09120
:100C70004C02F0914D02EC0FF11D62E080810E9468
:100C80003E02CF5FF0CF912C80915102981608F070
:100C90005FC0092D10E0E0914E02F0914F02E00F8D
:100CA000F11F61E080810E943E02E0914E02F091CE
:100CB0004F02E00FF11F60E080810E940A02D30121
:100CC000C201092C04C0880F991FAA1FBB1F0A94D8
:100CD000D2F75C017C01E094F094812C8091500269
:100CE0008816F8F4C82DD0E0E0914C02F0914D0246
:100CF000EC0FFD1F80810E94DE012496CC0FDD1FCA
:100D0000C651DE4F892B29F4888199818A299B2934
:100D100004C0888199818E219F219983888383943F
:100D2000DDCFE0914E02F0914F02E00FF11F61E044
:100D300080810E940A0280914E0290914F02FC0134
:100D4000E00FF11F60E080810E943E0293949CCFEF
:100D5000E6E0F2E083819481892B21F41082D28233
:100D6000C1821582369682E0E234F80799F710E0E6
:100D700006E080915002181708F052C0F12CC12FE4
:100D8000D0E0CC0FDD1FCE50DE4F20915102F21685
:100D900008F044C0688179810F2C02C07695679570
:100DA0000A94E2F761707727129F900111242F0DAA
:100DB000311DE0914A02F0914B02E20FF31FA08136
:100DC000EAEEF1E080E0458D568D4217530711F4AD
:100DD00061701AC08F5F36968A30A9F7672BE1F0F1
:100DE000E6E0F2E080E090E04081411110C0089F11
:100DF000F001099FF00D1124E651FE4FA48F368FAC
:100E0000258F10A2178E61E00E948A0205C001960C
:100E100036968A30910541F7F394B7CF1F5FA9CF7B
:100E200080E090E0C0E0FC01E651FE4F21A12111DD
:100E3000C1E006968C339105B1F70E947E02609363
:100E40004602709347028093480290934902CC2354
:100E500069F080910B02882349F0809109029091FA
:100E60000A02019719F4C091060203C010925602BB
:100E7000C0E060914901E0914B01E43008F0E3E00B
:100E800090916C02E91710F0EFEFE90FF0E0E75AEC
:100E9000FD4F8489860F682F606889E592E00E9483
:100EA0008403E0915902F0915A020190F081E02D03
:100EB0006C2F89E592E009958091490190914A0152
:100EC0000196803191052CF490934A018093490159
:100ED0000AC010924A011092490181E090E090937B
:100EE0004C0180934B010E94AB019DCEEE0FFF1F82
:100EF0000590F491E02D099481E090E0F8940C9431
:060F00008107F894FFCF09
:100F06000706050403020100494E440052414B0006
:100F1600344C200034234300000000004201AF009F
:100F2600DA0089010B01E900FD00000000007A02E9
:100F36003A020702000000007E03AF002B042A04D9
:107E0000112484B714BE81FFF0D085E080938100F7
:107E100082E08093C00088E18093C10086E0809377
:107E2000C20080E18093C4008EE0C9D0259A86E02C
:107E300020E33CEF91E0309385002093840096BBD3
:107E4000B09BFECF1D9AA8958150A9F7CC24DD24C4
:107E500088248394B5E0AB2EA1E19A2EF3E0BF2EE7
:107E6000A2D0813461F49FD0082FAFD0023811F036
:107E7000013811F484E001C083E08DD089C08234E0
:107E800011F484E103C0853419F485E0A6D080C0E4
:107E9000853579F488D0E82EFF2485D0082F10E0AE
:107EA000102F00270E291F29000F111F8ED06801E7
:107EB0006FC0863521F484E090D080E0DECF843638
:107EC00009F040C070D06FD0082F6DD080E0C81688
:107ED00080E7D80618F4F601B7BEE895C0E0D1E017
:107EE00062D089930C17E1F7F0E0CF16F0E7DF06D8
:107EF00018F0F601B7BEE89568D007B600FCFDCFD4
:107F0000A601A0E0B1E02C9130E011968C91119780
:107F100090E0982F8827822B932B1296FA010C0160
:107F200087BEE89511244E5F5F4FF1E0A038BF0790
:107F300051F7F601A7BEE89507B600FCFDCF97BE46
:107F4000E89526C08437B1F42ED02DD0F82E2BD052
:107F50003CD0F601EF2C8F010F5F1F4F84911BD097
:107F6000EA94F801C1F70894C11CD11CFA94CF0C13
:107F7000D11C0EC0853739F428D08EE10CD085E9AC
:107F80000AD08FE07ACF813511F488E018D01DD067
:107F900080E101D065CF982F8091C00085FFFCCF94
:107FA0009093C60008958091C00087FFFCCF809118
:107FB000C00084FD01C0A8958091C6000895E0E648
:107FC000F0E098E1908380830895EDDF803219F02E
:107FD00088E0F5DFFFCF84E1DECF1F93182FE3DFCA
:107FE0001150E9F7F2DF1F91089580E0E8DFEE27F6
:047FF000FF270994CA
:027FFE00040479
:0400000300007E007B
:00000001FF
