:100000000C945D000C9485000C9485000C94850084
:100010000C9485000C9485000C9485000C9485004C
:100020000C9485000C9485000C9485000C9485003C
:100030000C9485000C9485000C9485000C9485002C
:100040000C94B2020C9485000C9485000C948500ED
:100050000C9485000C9485000C9485000C9485000C
:100060000C9485000C94850000000008000201003B
:100070000003040700000000000000000000000072
:10008000250028002B0000000000240027002A0083
:10009000040404040404040402020202020203032E
:1000A0000303030301020408102040800102040836
:1000B0001020010204081020610311241FBECFEF9D
:1000C000D8E0DEBFCDBF11E0A0E0B1E0EEE5F7E0A3
:1000D00002C005900D92AC30B107D9F721E0ACE039
:1000E000B1E001C01D92AD32B207E1F710E0CDE5FD
:1000F000D0E004C02197FE010E94A203CC35D107B5
:10010000C9F70E94FC020C94AD030C94000090E02F
:10011000FC01EC55FF4F2491FC01E057FF4F849107
:10012000882399F090E0880F991FFC01EA57FF4F50
:10013000A591B491FC01E458FF4F859194918FB73C
:10014000F894EC91E22BEC938FBF0895CF92DF925D
:10015000EF92FF920F931F93CF93DF936C017A017D
:100160008B01C0E0D0E0CE15DF0589F0D8016D919C
:100170008D01D601ED91FC910190F081E02DC60139
:100180000995892B11F47E0102C02196ECCFC7019D
:10019000DF91CF911F910F91FF90EF90DF90CF9063
:1001A000089590E0FC01E859FF4F3491FC01EC55B3
:1001B000FF4F2491FC01E057FF4FE491EE2309F437
:1001C0003BC0332339F1333091F038F43130A9F0AA
:1001D000323001F584B58F7D12C0373091F0383060
:1001E000A1F03430B9F4809180008F7D03C08091FC
:1001F00080008F77809380000DC084B58F7784BD99
:1002000009C08091B0008F7703C08091B0008F7DCE
:100210008093B000F0E0EE0FFF1FE458FF4FA59170
:10022000B4918FB7F894EC91611103C020952E23FF
:1002300001C02E2B2C938FBF0895CF93DF93EC0139
:1002400060E08E810E94D10061E08E810E94D10029
:1002500060E08E810E94D1008BE891E00197F1F778
:10026000DF91CF910895CF92DF92EF92FF920F939B
:100270001F93CF93DF937C016C0187E0C80ED11CE4
:10028000C0E0D0E0062F10E0B8010C2E02C075953A
:1002900067950A94E2F76170F60181916F010E94FF
:1002A000D1002196C430D10579F7C701DF91CF91F4
:1002B0001F910F91FF90EF90DF90CF900C941D0154
:1002C000CF92DF92EF92FF920F931F93CF93DF9322
:1002D000EC01F62E642F8C810E94D1008D818F3F1E
:1002E00019F060E00E94D1008F850F2D10E084FF8F
:1002F00025C06E0187E0C80ED11CE12CF12CB8019D
:100300000E2C02C0759567950A94E2F76170F601AC
:1003100081916F010E94D100FFEFEF1AFF0A88E080
:10032000E816F10461F7CE01DF91CF911F910F9193
:10033000FF90EF90DF90CF900C941D01B80184E006
:10034000759567958A95E1F7CE010E9433016F2D6F
:10035000CE01DF91CF911F910F91FF90EF90DF9031
:10036000CF900C94330141E00E94600181E090E065
:10037000089540E00C946001EF92FF920F931F9359
:10038000CF93DF93EC01623018F08F8588608F8700
:100390006B8B1C8A80E48D8B80E18E8B80E58F8B4C
:1003A0008C810E9487008D818F3F11F00E94870011
:1003B0008E810E9487007E0187E0E80EF11C00E03C
:1003C00010E08F8584FD03C084E090E002C088E0E7
:1003D00090E00817190744F4F70181917F010E940A
:1003E00087000F5F1F4FEDCF8BE39DE00197F1F783
:1003F00060E08C810E94D10060E08E810E94D1007B
:100400008D818F3F19F060E00E94D1006F8564FDFF
:100410001DC063E0CE010E9433010BE416E4C80165
:100420000197F1F763E0CE010E943301C801019703
:10043000F1F763E0CE010E94330183E592E001977A
:10044000F1F762E0CE010E94330116C06062CE0176
:100450000E94B9018BE496E40197F1F76F85606221
:10046000CE010E94B90183E592E00197F1F76F8513
:100470006062CE010E94B9016F856062CE010E9468
:10048000B90184E0888B6CE0CE010E94B90161E083
:10049000CE010E94B9018BE39FE10197F1F782E061
:1004A000898B66E0CE01DF91CF911F910F91FF9074
:1004B000EF900C94B901089580E090E008958F9238
:1004C0009F92AF92BF920F931F93CF93DF93CDB7BD
:1004D000DEB7A1970FB6F894DEBF0FBECDBF19A24D
:1004E000423008F44AE08E010F5D1F4F842E912C9C
:1004F000A12CB12CA50194010E948003E62FB90123
:10050000CA0101501109EA3014F4E05D01C0E95C50
:10051000D801EC93232B242B252B61F70115110512
:1005200071F0F80101900020E9F73197AF01401B0D
:10053000510BB80185E191E00E94A60002C080E065
:1005400090E0A1960FB6F894DEBF0FBECDBFDF914D
:10055000CF911F910F91BF90AF909F908F90089572
:100560000E94A8031F920F920FB60F9211242F938F
:100570003F938F939F93AF93BF938091110190917D
:100580001201A0911301B09114013091100123E0E8
:10059000230F2D3720F40196A11DB11D05C026E8BB
:1005A000230F0296A11DB11D20931001809311010C
:1005B00090931201A0931301B093140180910C0148
:1005C00090910D01A0910E01B0910F010196A11D16
:1005D000B11D80930C0190930D01A0930E01B09377
:1005E0000F01BF91AF919F918F913F912F910F90EC
:1005F0000FBE0F901F901895789484B5826084BDCB
:1006000084B5816084BD85B5826085BD85B5816016
:1006100085BD80916E00816080936E001092810094
:10062000809181008260809381008091810081604F
:100630008093810080918000816080938000809110
:10064000B10084608093B1008091B000816080939C
:10065000B00080917A00846080937A0080917A0063
:10066000826080937A0080917A00816080937A0022
:1006700080917A00806880937A001092C10062E0D5
:1006800085E191E00E94BC01C0E0D0E0E1E0809112
:1006900028018111E0E0E195F0E0EB5EFE4F648916
:1006A000606885E191E00E94B9014AE061E472E589
:1006B00080E090E00E945F02209741F30E940000DA
:1006C000E5CFE5E1F1E01382128284E091E09183CD
:1006D00080838CE084838FEF85838BE0868385E045
:1006E000878384E0808783E0818782E08287138626
:1006F000148615861686178661E0CF010C94BC011E
:10070000A1E21A2EAA1BBB1BFD010DC0AA1FBB1F15
:10071000EE1FFF1FA217B307E407F50720F0A21B87
:10072000B30BE40BF50B661F771F881F991F1A94F4
:1007300069F760957095809590959B01AC01BD011E
:10074000CF010895EE0FFF1F0590F491E02D09945D
:0E07500081E090E0F8940C94AD03F894FFCF94
:0C075E0000000000B301A6005C025B027A
:00000001FF
