:100000000C945D000C9485000C9485000C94850084
:100010000C9485000C9485000C9485000C9485004C
:100020000C9485000C9485000C9485000C9485003C
:100030000C9485000C9485000C9485000C9485002C
:100040000C94E7020C9485000C9485000C948500B8
:100050000C9485000C9485000C9485000C9485000C
:100060000C9485000C94850000000008000201003B
:100070000003040700000000000000000000000072
:10008000250028002B0000000000240027002A0083
:10009000040404040404040402020202020203032E
:1000A0000303030301020408102040800102040836
:1000B0001020010204081020310411241FBECFEFCC
:1000C000D8E0DEBFCDBF11E0A0E0B1E0EAEBF8E0A0
:1000D00002C005900D92AC31B107D9F721E0ACE137
:1000E000B1E001C01D92AD33B207E1F710E0CDE5FC
:1000F000D0E004C02197FE010E945004CC35D10706
:10010000C9F70E9431030C945B040C94000090E04A
:10011000FC01EC55FF4F2491FC01E057FF4F849107
:10012000882399F090E0880F991FFC01EA57FF4F50
:10013000A591B491FC01E458FF4F859194918FB73C
:10014000F894EC91E22BEC938FBF0895CF92DF925D
:10015000EF92FF920F931F93CF93DF936C017A017D
:100160008B01C0E0D0E0CE15DF0589F0D8016D919C
:100170008D01D601ED91FC910190F081E02DC60139
:100180000995892B11F47E0102C02196ECCFC7019D
:10019000DF91CF911F910F91FF90EF90DF90CF9063
:1001A000089590E0FC01E859FF4F3491FC01EC55B3
:1001B000FF4F2491FC01E057FF4FE491EE2309F437
:1001C0003BC0332339F1333091F038F43130A9F0AA
:1001D000323001F584B58F7D12C0373091F0383060
:1001E000A1F03430B9F4809180008F7D03C08091FC
:1001F00080008F77809380000DC084B58F7784BD99
:1002000009C08091B0008F7703C08091B0008F7DCE
:100210008093B000F0E0EE0FFF1FE458FF4FA59170
:10022000B4918FB7F894EC91611103C020952E23FF
:1002300001C02E2B2C938FBF08953FB7F894809167
:10024000210190912201A0912301B091240126B5B2
:10025000A89B05C02F3F19F00196A11DB11D3FBFFE
:10026000BA2FA92F982F8827820F911DA11DB11D8C
:10027000BC01CD0142E0660F771F881F991F4A9588
:10028000D1F708958F929F92AF92BF92CF92DF9253
:10029000EF92FF920E941D014B015C0186E9C82E7E
:1002A000D12CE12CF12C0E941D01DC01CB0188191D
:1002B0009909AA09BB09883E9340A105B10558F0E8
:1002C00021E0C21AD108E108F10888EE880E83E027
:1002D000981EA11CB11CC114D104E104F10419F74A
:1002E000FF90EF90DF90CF90BF90AF909F908F9056
:1002F0000895CF93DF93EC0160E08E810E94D100DE
:1003000061E08E810E94D10060E08E810E94D10068
:100310008BE891E00197F1F7DF91CF910895CF92AB
:10032000DF92EF92FF920F931F93CF93DF937C01A5
:100330006C0187E0C80ED11CC0E0D0E0062F10E0B1
:10034000B8010C2E02C0759567950A94E2F76170AA
:10035000F60181916F010E94D1002196C430D10530
:1003600079F7C701DF91CF911F910F91FF90EF9027
:10037000DF90CF900C947901CF92DF92EF92FF92B1
:100380000F931F93CF93DF93EC01F62E642F8C8194
:100390000E94D1008D818F3F19F060E00E94D10052
:1003A0008F850F2D10E084FF25C06E0187E0C80EF9
:1003B000D11CE12CF12CB8010E2C02C0759567956B
:1003C0000A94E2F76170F60181916F010E94D100F9
:1003D000FFEFEF1AFF0A88E0E816F10461F7CE019B
:1003E000DF91CF911F910F91FF90EF90DF90CF9011
:1003F0000C947901B80184E0759567958A95E1F7C9
:10040000CE010E948F016F2DCE01DF91CF911F9100
:100410000F91FF90EF90DF90CF900C948F0141E00F
:100420000E94BC0181E090E0089540E00C94BC0182
:10043000643008F063E090913801691710F06FEFB5
:10044000690FE62FF0E0EB5DFE4F9489682F690F8E
:10045000606885E291E00C94150261E00E9415024B
:100460008BE39FE10197F1F70895EF92FF920F93CD
:100470001F93CF93DF93EC01623018F08F85886073
:100480008F876B8B1C8A80E48D8B80E18E8B80E55F
:100490008F8B8C810E9487008D818F3F11F00E948D
:1004A00087008E810E9487007E0187E0E80EF11CA4
:1004B00000E010E08F8584FD03C084E090E002C07E
:1004C00088E090E00817190744F4F70181917F0153
:1004D0000E9487000F5F1F4FEDCF8BE39DE00197D8
:1004E000F1F760E08C810E94D10060E08E810E9473
:1004F000D1008D818F3F19F060E00E94D1006F859F
:1005000064FD1DC063E0CE010E948F010BE416E480
:10051000C8010197F1F763E0CE010E948F01C80185
:100520000197F1F763E0CE010E948F0183E592E02D
:100530000197F1F762E0CE010E948F0116C0606260
:10054000CE010E9415028BE496E40197F1F76F85C6
:100550006062CE010E94150283E592E00197F1F7F7
:100560006F856062CE010E9415026F856062CE01C8
:100570000E94150284E0888B6CE0CE010E94150277
:10058000CE010E942D0282E0898B66E0CE01DF91D0
:10059000CF911F910F91FF90EF900C941502089549
:1005A00080E090E00895009769F0FC010190002040
:1005B000E9F73197AF01481B590BBC0185E291E087
:1005C0000C94A60080E090E008950E9456041F92CB
:1005D0000F920FB60F9211242F933F938F939F93F7
:1005E000AF93BF9380911D0190911E01A0911F01B7
:1005F000B091200130911C0123E0230F2D3720F40E
:100600000196A11DB11D05C026E8230F0296A11D6C
:10061000B11D20931C0180931D0190931E01A09396
:100620001F01B09320018091210190912201A0919E
:100630002301B09124010196A11DB11D80932101D8
:1006400090932201A0932301B0932401BF91AF9115
:100650009F918F913F912F910F900FBE0F901F9000
:100660001895789484B5826084BD84B5816084BD1A
:1006700085B5826085BD85B5816085BD80916E0040
:10068000816080936E001092810080918100826071
:1006900080938100809181008160809381008091AE
:1006A00080008160809380008091B100846080939D
:1006B000B1008091B00081608093B00080917A0099
:1006C000846080937A0080917A00826080937A00BF
:1006D00080917A00816080937A0080917A008068AE
:1006E00080937A001092C10062E085E291E00E945E
:1006F0003502C0E0D0E060E080E00E9418028CE0AB
:1007000091E00E94D3020E94420185E291E00E94A2
:100710002D0261E081E00E9418028CE091E00E94CD
:10072000D3020E94420185E291E00E942D0260E026
:1007300082E00E9418028CE091E00E94D3020E94A5
:10074000420185E291E00E942D0261E083E00E9477
:1007500018028CE091E00E94D3020E94420185E2DF
:1007600091E00E942D0260E084E00E9418028CE07B
:1007700091E00E94D3020E94420185E291E00E9432
:100780002D0261E085E00E9418028CE091E00E9459
:10079000D3020E94420185E291E00E942D0260E0B6
:1007A00086E00E9418028CE091E00E94D3020E9431
:1007B000420185E291E00E942D0261E087E00E9403
:1007C00018028CE091E00E94D3020E94420185E26F
:1007D00091E00E942D0260E088E00E9418028CE007
:1007E00091E00E94D3020E94420185E291E00E94C2
:1007F0002D0261E089E00E9418028CE091E00E94E5
:10080000D3020E94420185E291E00E942D0260E045
:100810008AE00E9418028CE091E00E94D3020E94BC
:10082000420185E291E00E942D0260E084E00E9496
:10083000180282E191E00E94D30261E084E00E940C
:10084000180282E191E00E94D3020E94420185E2F7
:1008500091E00E942D02209709F44DCF0E940000E4
:100860004ACFE5E2F1E01382128284E091E09183C5
:1008700080838CE084838FEF85838BE0868385E0A3
:10088000878384E0808783E0818782E08287138684
:10089000148615861686178661E0CF010C94350202
:1008A000EE0FFF1F0590F491E02D099481E090E098
:0A08B000F8940C945B04F894FFCF59
:1008BA00000000000F02A600D002CF02696E647227
:0C08CA00610053415249502021212100BF
:00000001FF
