:100000000C9462000C948A000C948A000C948A0070
:100010000C948A000C948A000C948A000C948A0038
:100020000C948A000C948A000C948A000C948A0028
:100030000C948A000C948A000C948A000C948A0018
:100040000C94CD030C948A000C949B030C947503C0
:100050000C948A000C948A000C948A000C948A00F8
:100060000C948A000C948A000000000023002600F3
:10007000290000000000240027002A0000000000E2
:10008000250028002B0004040404040404040202D4
:100090000202020203030303030301020408102007
:1000A0004080010204081020010204081020000012
:1000B0000008000201000003040700000000000027
:1000C0000000850511241FBECFEFD8E0DEBFCDBFF5
:1000D00011E0A0E0B1E0EAE3F0E102C005900D928A
:1000E000A633B107D9F721E0A6E3B1E001C01D9224
:1000F000A93EB207E1F710E0C2E6D0E004C02197C4
:10010000FE010E941008C136D107C9F70E941704EA
:100110000C941B080C940000E5EBF0E02491E1EA5C
:10012000F0E09491EDE8F0E0E491EE2309F43BC0B7
:10013000222339F1233091F038F42130A9F0223014
:1001400001F524B52F7D12C0273091F02830A1F0A1
:100150002430B9F4209180002F7D03C020918000CD
:100160002F77209380000DC024B52F7724BD09C0C0
:100170002091B0002F7703C02091B0002F7D2093F5
:10018000B000F0E0EE0FFF1FE458FF4FA591B491CF
:100190002FB7F894EC91811103C090959E2301C074
:1001A0009E2B9C932FBF0895CF93DF93E1EAF0E05D
:1001B0009491EDE8F0E02491222361F130E0220FE8
:1001C000331FF901EE58FF4FA591B491F901E4589E
:1001D000FF4FC591D491811109C02FB7F8948C912C
:1001E000909589238C93E8819E230BC0823061F423
:1001F0002FB7F8943C91892F809583238C93E881C5
:100200009E2B98832FBF06C08FB7F894EC919E2B3E
:100210009C938FBFDF91CF910895CF92DF92EF92A1
:10022000FF920F931F93CF93DF936C017A018B01A1
:10023000C0E0D0E0CE15DF0589F0D8016D918D01C9
:10024000D601ED91FC910190F081E02DC601099558
:10025000892B11F47E0102C02196ECCFC701DF91FA
:10026000CF911F910F91FF90EF90DF90CF90089565
:10027000089580E090E00895FC01538D448D252F72
:1002800030E0842F90E0821B930B541710F0CF9630
:10029000089501970895FC01918D828D981761F062
:1002A000828DDF01A80FB11D5D968C91928D9F5FAD
:1002B0009F73928F90E008958FEF9FEF0895FC0158
:1002C000918D828D981731F0828DE80FF11D858D0B
:1002D00090E008958FEF9FEF0895FC01918D228D9E
:1002E000892F90E0805C9F4F821B91098F73992723
:1002F00008958CE491E00E946D0121E0892B09F4BE
:1003000020E0822F0895FC01848DDF01A80FB11D2C
:10031000A35ABF4F2C91848D90E001968F7399273B
:10032000848FA689B7892C93A089B1898C91806428
:100330008C93938D848D981306C00288F389E02DE9
:1003400080818F7D80830895EF92FF920F931F939A
:10035000CF93DF93EC0181E0888F9B8D8C8D981378
:1003600005C0E889F989808185FD24C0F62E0B8DB2
:1003700010E00F5F1F4F0F731127E02E8C8DE812D6
:100380000CC00FB607FCFACFE889F989808185FF98
:10039000F5CFCE010E948301F1CF8B8DFE01E80FD6
:1003A000F11DE35AFF4FF0820B8FEA89FB898081B0
:1003B000806207C0EE89FF896083E889F9898081BE
:1003C0008064808381E090E0DF91CF911F910F9155
:1003D000FF90EF900895CF93DF93EC01888D8823F1
:1003E000C9F0EA89FB89808185FD05C0A889B989A2
:1003F0008C9186FD0FC00FB607FCF5CF808185FF7D
:10040000F2CFA889B9898C9185FFEDCFCE010E94EA
:100410008301E7CFDF91CF91089580E090E0892BB1
:1004200029F00E94790181110C94000008953FB7D2
:10043000F89480913B0190913C01A0913D01B091D5
:100440003E0126B5A89B05C02F3F19F00196A11DBE
:10045000B11D3FBFBA2FA92F982F8827820F911D5A
:10046000A11DB11DBC01CD0142E0660F771F881FA1
:10047000991F4A95D1F70895009769F0FC01019002
:100480000020E9F73197AF01481B590BBC018CE400
:1004900091E00C940D0180E090E008958F929F927E
:1004A000AF92BF920F931F93CF93DF93CDB7DEB779
:1004B000A1970FB6F894DEBF0FBECDBF19A2423090
:1004C00008F44AE08E010F5D1F4F842E912CA12C61
:1004D000B12CA50194010E94B205E62FB901CA0111
:1004E00001501109EA3014F4E05D01C0E95CD80163
:1004F000EC93232B242B252B61F7C8010E943C028F
:10050000A1960FB6F894DEBF0FBECDBFDF91CF919D
:100510001F910F91BF90AF909F908F9008954F9231
:100520005F926F927F928F929F92AF92BF92CF9283
:10053000DF92EF92FF926B017C01B42E9B01AC0124
:100540000E940B08882319F082E191E027C0260160
:100550003701E89477F82FEF3FEF4FE75FE7C301EC
:10056000B2010E940B0881110DC02FEF3FEF4FE742
:100570005FE7C301B2010E94410618161CF486E130
:1005800091E00CC02FEF3FEF4FE75FE4C701B601EA
:100590000E949907181684F48AE191E0FF90EF9089
:1005A000DF90CF90BF90AF909F908F907F906F9093
:1005B0005F904F900C943C022FEF3FEF4FE75FECC2
:1005C000C701B6010E94410687FDE6CF20E030E07A
:1005D000A901C701B6010E94410687FF11C0E09141
:1005E0004C01F0914D010190F081E02D6DE28CE421
:1005F00091E009954C01F7FAF094F7F8F09402C0F5
:10060000812C912CA12C60E070E080E09FE3AB1482
:1006100041F020E030E040E251E40E944606A3941D
:10062000F6CF9B01AC01C701B6010E94D5052B0195
:100630003C010E94B8066B017C010E94E7069B0109
:10064000AC01C301B2010E94D4052B013C014AE078
:10065000C701B6010E944E027C01E80CF91CBB20C8
:1006600069F0E0914C01F0914D010190F081E02D95
:100670006EE28CE491E00995E80EF91EDB2CDD209A
:1006800021F120E030E040E251E4C301B2010E94D8
:100690009E072B013C010E94B8064B01A12CB12CF6
:1006A0004AE0C501B4010E944E02E80EF91EC501E0
:1006B000B4010E94E7069B01AC01C301B2010E9494
:1006C000D4052B013C01DA94DACFC701FF90EF90FB
:1006D000DF90CF90BF90AF909F908F907F906F9062
:1006E0005F904F9008950E9416081F920F920FB6C8
:1006F0000F9211242F933F934F935F936F937F93A8
:100700008F939F93AF93BF93EF93FF938CE491E00C
:100710000E948301FF91EF91BF91AF919F918F91C3
:100720007F916F915F914F913F912F910F900FBEED
:100730000F901F9018951F920F920FB60F921124D1
:100740002F938F939F93EF93FF93E0915C01F09130
:100750005D018081E0916201F091630182FD12C030
:100760009081809165018F5F8F7320916601821760
:1007700051F0E0916501F0E0E45BFE4F958F8093CE
:10078000650101C08081FF91EF919F918F912F9121
:100790000F900FBE0F901F9018951F920F920FB6DB
:1007A0000F9211242F933F938F939F93AF93BF93F7
:1007B0008091370190913801A0913901B0913A01AF
:1007C0003091360123E0230F2D3720F40196A11D2F
:1007D000B11D05C026E8230F0296A11DB11D20936F
:1007E00036018093370190933801A0933901B0937B
:1007F0003A0180913B0190913C01A0913D01B09163
:100800003E010196A11DB11D80933B0190933C01D7
:10081000A0933D01B0933E01BF91AF919F918F9105
:100820003F912F910F900FBE0F901F9018957894C5
:1008300084B5826084BD84B5816084BD85B58260E5
:1008400085BD85B5816085BD80916E008160809396
:100850006E001092810080918100826080938100FF
:10086000809181008160809381008091800081600F
:10087000809380008091B10084608093B10080916A
:10088000B00081608093B00080917A008460809392
:100890007A0080917A00826080937A0080917A0059
:1008A000816080937A0080917A00806880937A00DA
:1008B0001092C100E0915C01F0915D0182E08083C3
:1008C000E0915801F09159011082E0915A01F091A4
:1008D0005B018FEC808310926401E0916001F091E4
:1008E000610186E08083E0915E01F0915F0180818B
:1008F00080618083E0915E01F0915F01808188607A
:100900008083E0915E01F0915F0180818068808347
:10091000E0915E01F0915F0180818F7D808361EACB
:10092000262E60E0362E0DE810E070E9E72EFF2459
:10093000F394F101D490F801849190E0880F991F0D
:1009400088599F4FFC01C591D49181E00E94D40049
:1009500080E00E948C000E9417024B015C0152E172
:10096000452E512C612C712C0E941702DC01CB0109
:1009700088199909AA09BB09883E9340A105B105C8
:1009800058F0F1E04F1A51086108710828EE820E04
:1009900023E0921EA11CB11C411451046104710496
:1009A00019F781E00E948C0080E00E94D40020E2D0
:1009B00033E088818D2121F021503109D1F754C0D5
:1009C00020E931E088818D2121F421503109D1F7CE
:1009D0004BC020E931E088818D2121F0215031097F
:1009E000D1F742C0712C80E8C12C40E050E020E9F2
:1009F00031E060E971E0E8E290E0F881FD2141F545
:100A0000992331F1E83261F42617370708F4B90168
:100A1000A701461B570B569547955695479507C016
:100A2000DB01A41BB50BA217B30708F0C82A90E09E
:100A300095958795009749F4A72DB0E0A15CBE4F2E
:100A40001896CC927394C12C80E8E15020E931E0F3
:100A50002150310949F09F2FE111CFCF81E00E9451
:100A6000D40081E00E948C0060914701862F8F772F
:100A700080934701609149016F77D62E60934901B9
:100A8000682F70E080E090E00E94E70660933F01ED
:100A90007093400180934101909342016D2D70E06D
:100AA00080E090E00E94E706609343017093440168
:100AB00080934501909346018EE191E00E943C02B3
:100AC00060914301709144018091450190914601EC
:100AD00042E00E948F0286E291E00E943C02609117
:100AE0003F0170914001809141019091420142E0AB
:100AF0000E948F0284E291E00E943C0283E391E035
:100B00000E943C020E940D0214CFECE4F1E013823B
:100B1000128288EE93E0A0E0B0E084839583A68300
:100B2000B78384E091E09183808385EC90E09587A2
:100B3000848784EC90E09787868780EC90E0918BA7
:100B4000808B81EC90E0938B828B82EC90E0958B94
:100B5000848B86EC90E0978B868B118E128E138E91
:100B6000148E0895A1E21A2EAA1BBB1BFD010DC015
:100B7000AA1FBB1FEE1FFF1FA217B307E407F5074D
:100B800020F0A21BB30BE40BF50B661F771F881F29
:100B9000991F1A9469F760957095809590959B01BF
:100BA000AC01BD01CF0108955058BB27AA270E9470
:100BB000EC050C945F070E94510738F00E9458071B
:100BC00020F039F49F3F19F426F40C944E070EF4EC
:100BD000E095E7FB0C944807E92F0E94700758F353
:100BE000BA17620773078407950720F079F4A6F512
:100BF0000C9492070EF4E0950B2EBA2FA02D0B014A
:100C0000B90190010C01CA01A0011124FF27591B51
:100C100099F0593F50F4503E68F11A16F040A22F57
:100C2000232F342F4427585FF3CF469537952795C8
:100C3000A795F0405395C9F77EF41F16BA0B620BC7
:100C4000730B840BBAF09150A1F0FF0FBB1F661F0E
:100C5000771F881FC2F70EC0BA0F621F731F841F51
:100C600048F4879577956795B795F7959E3F08F077
:100C7000B0CF9395880F08F09927EE0F9795879539
:100C800008950E94240708F481E008950E945A06FE
:100C90000C945F070E94580758F00E94510740F0DB
:100CA00029F45F3F29F00C94480751110C949307E5
:100CB0000C944E070E94700768F39923B1F35523F3
:100CC00091F3951B550BBB27AA276217730784075F
:100CD00038F09F5F5F4F220F331F441FAA1FA9F3F5
:100CE00035D00E2E3AF0E0E832D091505040E695E3
:100CF000001CCAF72BD0FE2F29D0660F771F881F44
:100D0000BB1F261737074807AB07B0E809F0BB0B36
:100D1000802DBF01FF2793585F4F3AF09E3F51054A
:100D200078F00C9448070C9493075F3FE4F3983EE7
:100D3000D4F3869577956795B795F7959F5FC9F733
:100D4000880F911D9695879597F90895E1E0660FB4
:100D5000771F881FBB1F621773078407BA0720F02D
:100D6000621B730B840BBA0BEE1F88F7E095089596
:100D70000E94780788F09F5798F0B92F9927B751AC
:100D8000B0F0E1F0660F771F881F991F1AF0BA952F
:100D9000C9F714C0B13091F00E949207B1E00895F4
:100DA0000C949207672F782F8827B85F39F0B93FE6
:100DB000CCF3869577956795B395D9F73EF49095E2
:100DC0008095709561957F4F8F4F9F4F0895E89460
:100DD00009C097FB3EF490958095709561957F4F83
:100DE0008F4F9F4F9923A9F0F92F96E9BB27939531
:100DF000F695879577956795B795F111F8CFFAF441
:100E0000BB0F11F460FF1BC06F5F7F4F8F4F9F4F71
:100E100016C0882311F096E911C0772321F09EE8CF
:100E2000872F762F05C0662371F096E8862F70E035
:100E300060E02AF09A95660F771F881FDAF7880F0F
:100E40009695879597F90895990F0008550FAA0B65
:100E5000E0E8FEEF16161706E807F907C0F01216CD
:100E60001306E407F50798F0621B730B840B950BD0
:100E700039F40A2661F0232B242B252B21F4089525
:100E80000A2609F4A140A6958FEF811D811D0895C2
:100E900097F99F6780E870E060E008959FEF80EC2D
:100EA000089500240A9416161706180609060895D0
:100EB00000240A9412161306140605060895092E36
:100EC0000394000C11F4882352F0BB0F40F4BF2BA5
:100ED00011F460FF04C06F5F7F4F8F4F9F4F0895E5
:100EE00057FD9058440F551F59F05F3F71F04795DB
:100EF000880F97FB991F61F09F3F79F087950895C0
:100F0000121613061406551FF2CF4695F1DF08C0DE
:100F1000161617061806991FF1CF869571056105FB
:100F200008940895E894BB2766277727CB0197F9A3
:100F300008950E94240708F48FEF08950E94B107D6
:100F40000C945F070E94510738F00E94580720F068
:100F5000952311F00C9448070C944E0711240C941F
:100F600093070E94700770F3959FC1F3950F50E0AF
:100F7000551F629FF001729FBB27F00DB11D639F4B
:100F8000AA27F00DB11DAA1F649F6627B00DA11DF1
:100F9000661F829F2227B00DA11D621F739FB00D97
:100FA000A11D621F839FA00D611D221F749F332707
:100FB000A00D611D231F849F600D211D822F762FA0
:100FC0006A2F11249F5750409AF0F1F088234AF07D
:100FD000EE0FFF1FBB1F661F771F881F91505040E9
:100FE000A9F79E3F510580F00C9448070C94930795
:100FF0005F3FE4F3983ED4F3869577956795B79570
:10100000F795E7959F5FC1F7FE2B880F911D969589
:10101000879597F908950E942407880B990B0895E6
:10102000EE0FFF1F0590F491E02D099481E090E010
:0A103000F8940C941B08F894FFCF0D
:10103A0000000000A4010D013C01EB016D014B0110
:10104A005F016E616E00696E66006F7666005465B8
:10105A006D70203D20002048756D6964697479209F
:06106A003D20000D0A000C
:00000001FF
