:100000000C9462000C948A000C948A000C948A0070
:100010000C948A000C948A000C948A000C948A0038
:100020000C948A000C948A000C948A000C94A2050B
:100030000C948A000C948A000C948A000C948A0018
:100040000C9458050C948A000C9426050C94000519
:100050000C948A000C948A000C948A000C948A00F8
:100060000C948A000C948A000000000024002700F1
:100070002A0000000000250028002B0000000000DE
:1000800023002600290004040404040404040202DA
:100090000202020203030303030301020408102007
:1000A0004080010204081020010204081020000012
:1000B0000008000201000003040700000000000027
:1000C0000000630611241FBECFEFD8E0DEBFCDBF16
:1000D00011E0A0E0B1E0E2EEF4E102C005900D9283
:1000E000A437B107D9F722E0A4E7B1E001C01D921F
:1000F000AC3CB207E1F710E0C2E6D0E004C02197C3
:10010000FE010E94640AC136D107C9F70E943D076B
:100110000C946F0A0C940000CF92DF92EF92FF9242
:10012000DC01A03282E0B8070CF03EC0B7FD06C08B
:10013000A53BB1052CF0A4EBB0E002C0A0E0B0E01C
:100140008091B20228E830E06901C81AD10887FD21
:10015000D394CC0CDD1CCC0CDD1C0D2C000CEE085B
:10016000FF088091B30228E532E0281B310987FDA2
:100170003395220F331F220F331FA901330F660B54
:10018000770B9A01AB012C193D094E095F090E94BA
:100190001F0A24EB30E040E050E00E94F509C20E57
:1001A000D31EE41EF51ED6019091B1029C3098F545
:1001B0008091B20248E850E0481B510987FD5395F1
:1001C000440F551F440F551FA417B5078CF080919D
:1001D000B30228E532E0281B310987FD3395220F51
:1001E000331F220F331FAD012A173B070CF4A9015F
:1001F00042505109440F551F2FB7F894892F90E0B2
:10020000FC01EE0FFF1F8E0F9F1FFC01E35EFD4FF1
:10021000528341832FBFFF90EF90DF90CF900895DE
:1002200096E0899FD0011124AE5BBD4F90967C93E0
:100230006E935F9791E091969C9391979091AE0207
:10024000E091AF02F091B002992339F0309751F06C
:10025000811108C080915E0204C0309719F05C964D
:100260008C9109940895CF92DF92EF92FF920F93B1
:100270001F93CF93DF936C017A018B01C0E0D0E034
:10028000CE15DF0589F0D8016D918D01D601ED9174
:10029000FC910190F081E02DC6010995892B11F4A4
:1002A0007E0102C02196ECCFC701DF91CF911F9153
:1002B0000F91FF90EF90DF90CF900895FC01538D48
:1002C000448D252F30E0842F90E0821B930B541730
:1002D00010F0CF96089501970895FC01918D828DBD
:1002E000981761F0828DDF01A80FB11D5D968C918A
:1002F000928D9F5F9F73928F90E008958FEF9FEF95
:100300000895FC01918D828D981731F0828DE80F50
:10031000F11D858D90E008958FEF9FEF0895FC010A
:10032000918D228D892F90E0805C9F4F821B9109D7
:100330008F739927089580E891E00E948F0121E052
:10034000892B09F420E0822F0895FC01848DDF01C0
:10035000A80FB11DA35ABF4F2C91848D90E0019638
:100360008F739927848FA689B7892C93A089B18927
:100370008C9180648C93938D848D981306C0028831
:10038000F389E02D80818F7D80830895EF92FF9225
:100390000F931F93CF93DF93EC0181E0888F9B8DA8
:1003A0008C8D981305C0E889F989808185FD24C06A
:1003B000F62E0B8D10E00F5F1F4F0F731127E02EED
:1003C0008C8DE8120CC00FB607FCFACFE889F989CA
:1003D000808185FFF5CFCE010E94A501F1CF8B8DE5
:1003E000FE01E80FF11DE35AFF4FF0820B8FEA89FF
:1003F000FB898081806207C0EE89FF896083E8897C
:10040000F98980818064808381E090E0DF91CF91E1
:100410001F910F91FF90EF900895CF93DF93EC0120
:10042000888D8823C9F0EA89FB89808185FD05C014
:10043000A889B9898C9186FD0FC00FB607FCF5CF4E
:10044000808185FFF2CFA889B9898C9185FFEDCF96
:10045000CE010E94A501E7CFDF91CF91089580E002
:1004600090E0892B29F00E949B0181110C940000DF
:100470000895833081F028F4813099F08230A1F022
:1004800008958730A9F08830B9F08430D1F4809194
:1004900080008F7D03C0809180008F7780938000E3
:1004A000089584B58F7702C084B58F7D84BD08958B
:1004B0008091B0008F7703C08091B0008F7D8093D2
:1004C000B0000895CF93DF93282F30E0F901E25573
:1004D000FF4F8491F901E656FF4FD491F901EA5795
:1004E000FF4FC491CC2391F081110E943902EC2F6F
:1004F000F0E0EE0FFF1FE458FF4FA591B491EC918F
:10050000ED2381E090E021F480E002C080E090E003
:10051000DF91CF910895862F0C9462021F93CF93A1
:10052000DF93282F30E0F901E255FF4F8491F90164
:10053000E656FF4FD491F901EA57FF4FC491CC23FF
:10054000C9F0162F81110E943902EC2FF0E0EE0F56
:10055000FF1FEE58FF4FA591B4918FB7F89411117A
:1005600005C09C91ED2FE095E92302C0EC91ED2BA5
:10057000EC938FBFDF91CF911F910895862F642F49
:100580000C948E02CF93DF9390E0FC01E656FF4F70
:100590002491FC01EA57FF4F8491882361F190E098
:1005A000880F991FFC01E859FF4FC591D491FC01B8
:1005B000EE58FF4FA591B491611109C09FB7F8940F
:1005C0008881209582238883EC912E230BC0623092
:1005D00061F49FB7F8943881822F809583238883B4
:1005E000EC912E2B2C939FBF06C08FB7F894E88117
:1005F0002E2B28838FBFDF91CF910895862F642FF4
:100600000C94C2023FB7F89480917A0190917B01DB
:10061000A0917C01B0917D0126B5A89B05C02F3F1C
:1006200019F00196A11DB11D3FBFBA2FA92F982F18
:100630008827820F911DA11DB11DBC01CD0142E093
:10064000660F771F881F991F4A95D1F708952FB716
:10065000F894609176017091770180917801909182
:1006600079012FBF08950F931F93CF93DF93C82F66
:10067000D62F86E0C89FF0011124EE5BFD4F11A23A
:10068000878D90A181309105F1F01CF4892B49F000
:1006900043C082309105A9F10397F1F560E070E065
:1006A00034C06623C9F161E070E08C2F0E94100114
:1006B0000E94270360939A0270939B0280939C028E
:1006C00090939D0229C00E94270300919A021091E5
:1006D0009B0220919C0230919D02AB01BC01401B0A
:1006E000510B620B730B8091AC029091AD02A0E0B4
:1006F000B0E084179507A607B70718F462E070E02A
:1007000004C0D11109C063E070E08C2FDF91CF915C
:100710001F910F910C941001DF91CF911F910F91B8
:100720000895CF93DF93EC0160E08E810E948E02EA
:1007300061E08E810E948E0260E08E810E948E02B6
:100740008BE891E00197F1F7DF91CF910895CF9277
:10075000DF92EF92FF920F931F93CF93DF937C0171
:100760006C0187E0C80ED11CC0E0D0E0062F10E07D
:10077000B8010C2E02C0759567950A94E2F7617076
:10078000F60181916F010E948E022196C430D1053D
:1007900079F7C701DF91CF911F910F91FF90EF90F3
:1007A000DF90CF900C949103CF92DF92EF92FF9263
:1007B0000F931F93CF93DF93EC01F62E642F8C8160
:1007C0000E948E028D818F3F19F060E00E948E02A0
:1007D0008F850F2D10E084FF25C06E0187E0C80EC5
:1007E000D11CE12CF12CB8010E2C02C07595679537
:1007F0000A94E2F76170F60181916F010E948E0206
:10080000FFEFEF1AFF0A88E0E816F10461F7CE0166
:10081000DF91CF911F910F91FF90EF90DF90CF90DC
:100820000C949103B80184E0759567958A95E1F77A
:10083000CE010E94A7036F2DCE01DF91CF911F91B2
:100840000F91FF90EF90DF90CF900C94A70341E0C1
:100850000E94D40381E090E0089540E00C94D4031A
:10086000EF92FF920F931F93CF93DF93EC016230CF
:1008700018F08F8588608F876B8B1C8A80E48D8B46
:1008800080E18E8B80E58F8B61E08C810E94C202BB
:100890008D818F3F19F061E00E94C20261E08E817C
:1008A0000E94C2027E0187E0E80EF11C00E010E029
:1008B0008F8584FD03C084E090E002C088E090E072
:1008C000081719074CF461E0F70181917F010E943C
:1008D000C2020F5F1F4FECCF8BE39DE00197F1F752
:1008E00060E08C810E948E0260E08E810E948E0208
:1008F0008D818F3F19F060E00E948E026F8564FD4C
:100900001DC063E0CE010E94A7030BE416E4C801FA
:100910000197F1F763E0CE010E94A703C801019798
:10092000F1F763E0CE010E94A70383E592E001970F
:10093000F1F762E0CE010E94A70316C06062CE010B
:100940000E942D048BE496E40197F1F76F856062B5
:10095000CE010E942D0483E592E00197F1F76F85A7
:100960006062CE010E942D046F856062CE010E94FC
:100970002D0484E0888B6CE0CE010E942D0461E0A0
:10098000CE010E942D048BE39FE10197F1F782E0F5
:10099000898B66E0CE01DF91CF911F910F91FF907F
:1009A000EF900C942D04643008F063E09091C7023E
:1009B000691710F06FEF690FE62FF0E0EC54FD4F70
:1009C0009489682F690F606884EB92E00C942D0481
:1009D000089580E090E00895009769F0FC0101908F
:1009E0000020E9F73197AF01481B590BBC0184EB9C
:1009F00092E00C94330180E090E008950E946A0A2E
:100A00001F920F920FB60F9211242F933F934F9383
:100A10005F936F937F938F939F93AF93BF93EF9366
:100A2000FF9380E891E00E94A501FF91EF91BF91B3
:100A3000AF919F918F917F916F915F914F913F9176
:100A40002F910F900FBE0F901F9018951F920F922D
:100A50000FB60F9211242F938F939F93EF93FF93D1
:100A6000E0919001F09191018081E0919601F091E7
:100A7000970182FD12C09081809199018F5F8F73E1
:100A800020919A01821751F0E0919901F0E0E0582D
:100A9000FE4F958F8093990101C08081FF91EF9166
:100AA0009F918F912F910F900FBE0F901F901895CF
:100AB0001F920F920FB60F9211242F933F938F9393
:100AC0009F93AF93BF938091760190917701A0910E
:100AD0007801B09179013091750123E0230F2D3712
:100AE00020F40196A11DB11D05C026E8230F029632
:100AF000A11DB11D2093750180937601909377011C
:100B0000A0937801B093790180917A0190917B0153
:100B1000A0917C01B0917D010196A11DB11D809332
:100B20007A0190937B01A0937C01B0937D01BF91EA
:100B3000AF919F918F913F912F910F900FBE0F908A
:100B40001F9018951F920F920FB60F9211242F939A
:100B50003F934F935F936F937F938F939F93AF9345
:100B6000BF93EF93FF938091740187FF05C01092AC
:100B70008500109284001BC020917401022E000C8D
:100B8000330B8091410290E02817390784F480915B
:100B90007401082E000C990BFC01EE0FFF1F8E0F45
:100BA0009F1FFC01E35EFD4F808186FD15C0809193
:100BB00074018F5F8093740120917401022E000CE8
:100BC000330B8091410290E028173907C4F48091DB
:100BD00074018C3064F113C080917401082E000CF4
:100BE000990BFC01EE0FFF1F8E0F9F1FFC01E35EB0
:100BF000FD4F808160E08F730E948E02D8CF80917C
:100C0000840090918500049680349C4918F480E417
:100C10009CE905C080918400909185000496909392
:100C20008900809388008FEF809374013BC02091EE
:100C300084003091850080917401082E000C990B7E
:100C4000FC01EE0FFF1F8E0F9F1FFC01E35EFD4FA7
:100C500081819281820F931F9093890080938800F5
:100C600080917401082E000C990BFC01EE0FFF1F00
:100C70008E0F9F1FFC01E35EFD4F808186FF12C037
:100C800080917401082E000C990BFC01EE0FFF1FE0
:100C90008E0F9F1FFC01E35EFD4F808161E08F732B
:100CA0000E948E02FF91EF91BF91AF919F918F9122
:100CB0007F916F915F914F913F912F910F900FBE58
:100CC0000F901F901895CF9310928301109282017C
:100CD00088EE93E0A0E0B0E08093840190938501DA
:100CE000A0938601B093870184E091E09093810105
:100CF0008093800185EC90E090938D0180938C012E
:100D000084EC90E090938F0180938E0180EC90E0D2
:100D1000909391018093900181EC90E090939301E6
:100D20008093920182EC90E09093950180939401DE
:100D300086EC90E090939701809396011092990130
:100D400010929A0110929B0110929C011092B7028E
:100D50001092B60280E291E09093B5028093B402C3
:100D60008DE08093B802CFEFC093B9028CE08093FE
:100D7000BA028BE08093BB028AE08093BC0289E0D8
:100D80008093BD0288E08093BE021092BF02109251
:100D9000C0021092C1021092C2021092C30261E01E
:100DA00084EB92E00E943004809141028C30A0F4E8
:100DB00091E0980F909341028093B10290E0FC0182
:100DC000EE0FFF1F8E0F9F1FFC01E35EFD4F88EBB0
:100DD0009BE09283818302C0C093B10210924402CF
:100DE00010924802109247021092490286E191E067
:100DF000909343028093420280E090E0FC01EE5B1E
:100E0000FD4F148E10A2178E11A206968C339105F9
:100E1000A9F78BE291E09093A5028093A40288E267
:100E200091E09093A7028093A60284E08093A802A9
:100E300083E08093A9028FE291E09093A3028093D4
:100E4000A2028AE090E09093AB028093AA0284EF22
:100E500091E09093AD028093AC021092B002109298
:100E6000AF0210929E0210929F021092A002109266
:100E7000A1021092AE02CF910895789484B5826059
:100E800084BD84B5816084BD85B5826085BD85B52E
:100E9000816085BD80916E00816080936E001092AC
:100EA0008100809181008260809381008091810027
:100EB00081608093810080918000816080938000B8
:100EC0008091B10084608093B1008091B000816016
:100ED0008093B00080917A00846080937A00809142
:100EE0007A00826080937A0080917A00816080939A
:100EF0007A0080917A00806880937A001092C10015
:100F000062E084EB92E00E943004E0919001F09165
:100F1000910182E08083E0918C01F0918D0110823B
:100F2000E0918E01F0918F018FEC808310929801F7
:100F3000E0919401F091950186E08083E091920127
:100F4000F0919301808180618083E0919201F09122
:100F50009301808188608083E0919201F0919301F8
:100F6000808180688083E0919201F091930180817B
:100F70008F7D80838091B1028C3008F050C061E099
:100F800080E00E94C2028091B102E82FF0E09F0150
:100F9000220F331FE20FF31FE35EFD4F9081907C21
:100FA00090831092B2021092B3026CE00E94580A31
:100FB0002CE0829FB001112440E050E09A01260FFE
:100FC000371FF901EE0FFF1F2E0F3F1FF901E35EE0
:100FD000FD4F908196FD16C04F5F5F4F4C3051051D
:100FE00069F781110FC01092800082E08093810028
:100FF0001092850010928400B19A80916F008260F7
:1010000080936F00E091B102F0E0CF01880F991F4B
:10101000E80FF91FE35EFD4F8081806480838BE3DE
:1010200091E00E94EC0434EB232E312C412C512C06
:101030003201439460E08BE00E94D30481E080930E
:10104000AE020E94270300919E0210919F02209100
:10105000A0023091A102AB01BC01401B510B620BFD
:10106000730B8091AA029091AB02A0E0B0E08417CC
:101070009507A607B70708F008C1C0E08091A8024D
:10108000C81760F4E091A402F091A502EC0FF11DE5
:1010900062E080810E94C202CF5FF0CF912C8091EC
:1010A000A902981608F05FC0092D10E0E091A60291
:1010B000F091A702E00FF11F61E080810E94C2025F
:1010C000E091A602F091A702E00FF11F60E080819D
:1010D0000E948E02D301C201092C04C0880F991FFF
:1010E000AA1FBB1F0A94D2F75C017C01E094F09424
:1010F000812C8091A8028816F8F4C82DD0E0E091E8
:10110000A402F091A502EC0FFD1F80810E946202F3
:101110002496CC0FDD1FCE5BDD4F892B29F488810F
:1011200099818A299B2904C0888199818E219F21D8
:10113000998388838394DDCFE091A602F091A70282
:10114000E00FF11F61E080810E948E028091A60273
:101150009091A702FC01E00FF11F60E080810E94E6
:10116000C20293949CCFEEE5F2E08FEF9FEF2381D4
:101170003481232B21F41082928381831582369649
:1011800022E0EA39F20799F710E006E08091A80220
:10119000181708F052C0F12CC12FD0E0CC0FDD1F82
:1011A000C65BDD4F2091A902F21608F044C06881A9
:1011B00079810F2C02C0769567950A94E2F76170E9
:1011C0007727129F900111242F0D311DE091A2026B
:1011D000F091A302E20FF31FA081E2E4F2E080E0CD
:1011E000458D568D4217530711F461701AC08F5FF9
:1011F00036968A30A9F7672BE1F0EEE5F2E080E061
:1012000090E04081411110C0089FF001099FF00D4E
:101210001124EE5BFD4FA48F368F258F10A2178E01
:1012200061E00E94330305C0019636968A3091052D
:1012300041F7F394B7CF1F5FA9CF80E090E0C0E003
:10124000FC01EE5BFD4F21A12111C1E006968C331C
:101250009105B1F70E94270360939E0270939F024D
:101260008093A0029093A102CC2379F08091630235
:10127000882359F08091610290916202019729F4CC
:10128000C0915E02CA3221F40AC01092AE02C0E0E0
:1012900080ED8C0F8A3018F0C33209F0A3C0E091C2
:1012A000B402F091B5020190F081E02D6C2F84EB37
:1012B00092E0099561E080E0C13309F072C00E94BC
:1012C000D30486E491E00E94EC0410927F01109216
:1012D0007E01C0917E01D0917F01C53BD1054CF4C8
:1012E000CE010E948C002196D0937F01C0937E0195
:1012F000F0CF0E9402036B017C0188EB882E8BE00B
:10130000982EA12CB12C0E940203DC01CB018C1978
:101310009D09AE09BF09883E9340A105B10558F06B
:1013200081E0881A9108A108B10898EEC90E93E0EF
:10133000D91EE11CF11C81149104A104B10419F718
:1013400061E084EB92E00E942D048BE39FE1019722
:10135000F1F730927F0120927E01C0917E01D09101
:101360007F01D7FD09C0CE010E948C002197D09348
:101370007F01C0937E01F1CF60E080E00E94D30442
:101380008BE391E00E94EC0461E080E00E94D304D2
:1013900085E591E00E94EC0460E08BE00E94D304BC
:1013A00021C0C233C9F40E94D30485E591E00E94B4
:1013B000EC0430927F0120927E01C0917E01D09199
:1013C0007F01D7FD0FC0CE010E948C002197D093E2
:1013D0007F01C0937E01F1CF0E94D30484E691E0A7
:1013E0000E94EC040E942F0225CE052E97FB1EF4CE
:1013F00000940E940C0A57FD07D00E94270A07FCA0
:1014000003D04EF40C940C0A5095409530952195DC
:101410003F4F4F4F5F4F0895909580957095619520
:101420007F4F8F4F9F4F08950E94490AA59F900DAF
:10143000B49F900DA49F800D911D11240895B7FFB6
:101440000C94140A0E94140A821B930B0895A1E2C3
:101450001A2EAA1BBB1BFD010DC0AA1FBB1FEE1F2E
:10146000FF1FA217B307E407F50720F0A21BB30B79
:10147000E40BF50B661F771F881F991F1A9469F7F5
:1014800060957095809590959B01AC01BD01CF0151
:101490000895A29FB001B39FC001A39F700D811D4D
:1014A0001124911DB29F700D811D1124911D08956D
:1014B000991B79E004C0991F961708F0961B881FA6
:1014C0007A95C9F780950895EE0FFF1F0590F49166
:1014D000E02D099481E090E0F8940C946F0AF89460
:0214E000FFCF3C
:1014E20000000000C60133015E010D028F016D0193
:1014F200810100000000FE02BE028B02000000001B
:1015020027043301E904E804070605040302013154
:1015120032333435363738392A3023504153535712
:101522004F52443A200050494E54552020544552BF
:1015320042554B410050494E5455205445524B554B
:101542004E43490050415353574F52442053414C4C
:04155200414800000C
:00000001FF
